:020000040800F2
:1000000000400020F10D0008690300086B030008A0
:1000100000000000000000000000000000000000E0
:100020000000000000000000000000006D03000858
:1000300000000000000000006F03000871030008CA
:10004000410E0008410E0008410E0008410E000854
:10005000410E0008410E0008410E0008410E000844
:10006000410E0008410E0008410E0008410E000834
:10007000410E0008410E0008410E0008410E000824
:10008000410E0008410E0008410E0008410E000814
:10009000410E0008410E0008410E0008410E000804
:1000A000410E0008410E0008410E0008410E0008F4
:1000B000410E0008410E0008410E0008410E0008E4
:1000C00010B5064C2378002B07D1054B002B02D02E
:1000D000044800E000BF0123237010BD040000208D
:1000E000000000008C0E0008044B10B5002B03D05C
:1000F0000349044800E000BF10BDC04600000000F6
:10010000080000208C0E0008002243088B4274D3A4
:1001100003098B425FD3030A8B4244D3030B8B4208
:1001200028D3030C8B420DD3FF22090212BA030C11
:100130008B4202D31212090265D0030B8B4219D3F2
:1001400000E0090AC30B8B4201D3CB03C01A524112
:10015000830B8B4201D38B03C01A5241430B8B425A
:1001600001D34B03C01A5241030B8B4201D30B0343
:10017000C01A5241C30A8B4201D3CB02C01A52416A
:10018000830A8B4201D38B02C01A5241430A8B422D
:1001900001D34B02C01A5241030A8B4201D30B0216
:1001A000C01A5241CDD2C3098B4201D3CB01C01A30
:1001B000524183098B4201D38B01C01A524143093A
:1001C0008B4201D34B01C01A524103098B4201D328
:1001D0000B01C01A5241C3088B4201D3CB00C01A95
:1001E000524183088B4201D38B00C01A524143080D
:1001F0008B4201D34B00C01A5241411A00D2014632
:10020000524110467047FFE701B5002000F006F8A4
:1002100002BDC0460029F7D076E770477047C04658
:1002200010B500F04DF800F00BF8024800F004F8AB
:10023000F9E7C046DC05000010B500F0FFF810BD7E
:1002400010B590202021C00500F0DCF910BDFEE7BC
:1002500000B593B0202305931F3B0D9300230E930D
:1002600005A800F035FA00281FD107230193043BAD
:100270000293002303930493012101A800F0F0FCF2
:10028000002816D100F0AEFDFA218900FFF73CFFEF
:1002900000F0ECF9042000F005FA01200022002112
:1002A000404200F0B3F913B000BD3E210348FFF710
:1002B000CEFF4B210148FFF7CAFFC046C40E00081D
:1002C00010B500F09DF8FFF7C3FF00F02BF810BD4C
:1002D00000B583B0124B9969012211439961996964
:1002E0000A400092009ADA69802149050A43DA61DE
:1002F000DB690B400193019B052000220021404255
:1003000000F084F9022000220021404200F07EF932
:10031000012000220021404200F078F903B000BD26
:100320000010024010B586B00E4A5169802080024C
:1003300001435161536903400093009B9024E405FD
:1003400000222021200000F057F9202301931F3BB9
:10035000029300230393049301A9200000F080F886
:1003600006B010BD001002407047FEE770477047AE
:1003700010B500F055F800F0A6F910BD114B1A6841
:1003800001210A431A605A680F4802405A601A68ED
:100390000E4802401A601A680D4802401A605A68F6
:1003A0000C4802405A60DA6A0F208243DA621A6B04
:1003B000094802401A635A6B8A435A6300229A60C2
:1003C0007047C046001002400CB8FF08FFFFF6FE61
:1003D000FFFFFBFFFFFFC0FF2CFEFCFF10B504007A
:1003E00000F000FDFA218900FFF78EFE00F03EF9D3
:1003F000012000222100404200F008F9002010BD39
:1004000010B5064A136810210B4313600020FFF754
:10041000E5FFFFF75DFF002010BDC0460020024051
:10042000024A1368013313607047C0462000002061
:10043000014B18687047C0462000002030B583B0DB
:100440000190FFF7F5FF0500019C631C00D001340B
:10045000FFF7EEFF401BA042FAD303B030BD00000F
:10046000F0B5C64600B582B0002338E0042600E0AF
:100470000026AE4035003D430234A400574EA5513E
:10048000574C25684246D4432E0026404A68D20382
:1004900002D5424615432E00514D2E606D682E0048
:1004A00026404A68920302D5424615432E004C4D21
:1004B0006E60AD682E0026404A68D20202D54246E0
:1004C00015432E00464DAE60ED682C404A689202FE
:1004D00002D542462A431400414AD46001330A68D7
:1004E0001400DC4076D001259D402A409046F5D08E
:1004F0004C68022C01D0122C0ED1DC080834A40068
:10050000275807261E40B6000F22B24097430A69BB
:10051000B24016003E43265002685F0003242600C6
:10052000BE40F643324094464A681440BC4062469E
:10053000144304604C68621E012A03D9112C01D0B7
:10054000122C10D184683440A446CC68BC4062466A
:10055000144384604468AC434A681209012515407D
:100560009D4025434560C46826408C68BC403443A8
:10057000C4604A68D200B1D51A4DAE690124264341
:10058000AE61AD692C400194019C9C08A51CAD0096
:10059000124EAF5903261E40B5000F26AE40B7439A
:1005A0009026F605B04200D162E70F4EB0420BD064
:1005B0000E4EB0420AD00E4EB04209D00D4EB0429F
:1005C00000D153E7052654E7012652E7022650E7FB
:1005D00003264EE702B004BC9046F0BD0000014087
:1005E00000040140001002400004004800080048D8
:1005F000000C004800100048002A01D181627047B9
:100600008161FCE7436959404161704770B500283A
:1006100011DB8408134DC034A40062590323184031
:10062000C000FC331E008640B24389010B4083406A
:100630001343635170BDC0B20F220240083A9208C2
:1006400006329200084BD3185D6803242040C00096
:10065000FF2214008440A54389010A4082402A43B6
:100660005A60E7E700E100E000ED00E001380A4BE6
:1006700098420FD8094A50600948036A1B021B0AB6
:10068000C02109060B430362002393600733136004
:10069000002070470120FCE7FFFFFF0010E000E0B2
:1006A00000ED00E0042805D0054A136804218B43BF
:1006B00013607047024A136804210B431360F8E784
:1006C00010E000E0704710B5FFF7FCFF10BD000020
:1006D00070B582B004000368DB072BD5B34B5A68B2
:1006E0000C231340042B1DD0B04B5A680C2313402D
:1006F000082B0ED06368012B41D0002B56D1AB4B99
:100700001A68AB490A401A601A68AA490A401A6076
:100710003BE0A64B5B68C02252021340802252028B
:100720009342E7D1A14B1B689B0303D56368002B61
:1007300000D139E223689B0778D59C4B5B680C227B
:100740001A4262D0994B5A680C231340082B53D09D
:10075000E368002B00D18BE0944A136801210B431E
:100760001360FFF765FE0500904B1B689B0776D46E
:10077000FFF75EFE401B0228F6D9032017E28B4AE2
:10078000116880235B020B4313606368002B25D044
:10079000FFF74EFE0500854B1B689B03CAD4FFF78D
:1007A00047FE401B6428F6D9032000E2052B09D040
:1007B0007E4B1A687E490A401A601A687D490A40D1
:1007C0001A60E2E7794B19688022D2020A431A6064
:1007D0001968802252020A431A60D6E7FFF728FE02
:1007E0000500724B1B689B03A4D5FFF721FE401B3D
:1007F0006428F6D90320DAE16C4B5B68C022520210
:100800001340802212029342A2D1684B1B689B07BF
:1008100004D5E368012B01D00120C8E163490B68CE
:10082000F82293432269D20013430B6023681B070D
:1008300044D5E369002B2ED05C4A536A01210B4357
:100840005362FFF7F5FD0500584B5B6A9B0735D4F3
:10085000FFF7EEFD401B0228F6D90320A7E153491C
:100860000B68F82293432269D20013430B60DDE743
:100870004E4A136801218B431360FFF7D9FD050031
:100880004A4B1B689B07D1D5FFF7D2FD401B0228BE
:10089000F6D903208BE1454A536A01218B43536209
:1008A000FFF7C6FD0500414B5B6A9B0706D5FFF7C6
:1008B000BFFD401B0228F6D9032078E123685B07BF
:1008C00000D47FE0394BDB69DB001DD4374AD169A6
:1008D000802040050143D161D36903400193019B0E
:1008E0000125354B1B68DB0510D5A368012B21D0F2
:1008F000002B36D12D4B1A6A01218A431A621A6ADB
:1009000003318A431A621AE00025EAE72A4A11688D
:1009100080235B000B431360FFF78AFD0600264B24
:100920001B68DB05E1D4FFF783FD801B6428F6D943
:1009300003203CE11D4A136A01210B431362A368A3
:10094000002B24D0FFF774FD0600184B1B6A9B0791
:1009500036D4FFF76DFD801B184B9842F5D9032064
:1009600025E1052B09D0114B1A6A01218A431A622D
:100970001A6A03318A431A62E1E70C4B1A6A0421AE
:100980000A431A621A6A03390A431A62D7E7FFF761
:100990004FFD0600054B1B6A9B0711D5FFF748FD6D
:1009A000801B064B9842F5D9032000E1001002405D
:1009B000FFFFFEFFFFFFFBFF0070004088130000F9
:1009C000012D3AD02368DB0610D56369012B3AD09C
:1009D000053358D1784A536B04218B435363536BCF
:1009E000F4318B43A169C9000B43536323689B0611
:1009F00000D482E0704B5A680C2313400C2B60D05B
:100A00006D4B5A680C231340082B53D0236A002BDC
:100A100060D0694A516B80235B020B435363FFF73D
:100A200007FD0500644B5B6BDB0366D4FFF700FD3D
:100A3000401B0228F6D90320B9E05F4AD3695F4919
:100A40000B40D361BEE75C4B5A6B04210A435A63E7
:100A50005A6B03390A435A63FFF7EAFC0500564B09
:100A60005B6B9B0706D4FFF7E3FC401B0228F6D91B
:100A700003209CE050494B6BF8229343A269D200BB
:100A800013434B63B2E74C4B5A6B04210A435A633E
:100A90005A6B03398A435A63FFF7CAFC0500464B79
:100AA0005B6B9B07A2D5FFF7C3FC401B0228F6D95E
:100AB00003207CE0404B5B68C0225202134093420B
:100AC000A4D13D4B5B6BDB0317D5236A012B14D0FC
:100AD00001206CE0384A536B39490B405363FFF7F0
:100AE000A7FC0500344B5B6BDB0306D5FFF7A0FCCE
:100AF000401B0228F6D9032059E0636A002B55D029
:100B00002D4A51680C220A40082A52D0022B12D0DA
:100B1000294A13682B490B401360FFF789FC040036
:100B2000254B1B689B013DD5FFF782FC001B02286B
:100B3000F6D903203BE0204A136822490B4013609A
:100B4000FFF776FC05001C4B1B689B0106D5FFF7E1
:100B50006FFC401B0228F6D9032028E0164BDA6A06
:100B60000F218A43216B0A43DA625A6816490A4008
:100B7000E16AA06A01430A435A601968802252045C
:100B80000A431A60FFF754FC04000B4B1B689B01DF
:100B900006D4FFF74DFC001B0228F6D9032006E01F
:100BA000002004E0002002E0012000E0002002B06C
:100BB00070BD0120FBE7C04600100240FFFFFFEFC1
:100BC000FFFFFEFFFFFFFFFEFF7FC2FF30B589B0D2
:100BD00004AA1F4B180032C832C2110002680A6012
:100BE0006A46103313CB13C21B681360194B5A6843
:100BF0000C231340082B04D00C2B26D0164809B028
:100C000030BD910C0F23194004A8445C1149C96AF6
:100C10000B406946C95CC0235B021A4080235B021B
:100C20009A4208D0C0235B029A4209D00A48FFF7D3
:100C30006BFA6043E3E70848FFF766FA6043DEE7D4
:100C40000648FFF761FA6043D9E70448D7E7C04692
:100C5000A40E00080010024000127A00006CDC02B2
:100C600070B505000C00594B1A68012313408B42E4
:100C70000BD256490B680122934323430B600B6848
:100C80001A40A24201D0012070BD2B689B0706D5F7
:100C90004F4A5368F0218B43A9680B4353602B687C
:100CA000DB0763D56B68012B09D0022B28D0032BFF
:100CB0002CD0474A1268920705D40120E4E7444A41
:100CC000126892037FD542494A6803208243134346
:100CD0004B60FFF7ADFB06006B68012B1CD0022BAD
:100CE00028D0032B34D03A4B5B680C221A423DD0FB
:100CF000FFF79EFB801B374B9842F4D90320C3E7D4
:100D0000334A12689201DED40120BDE7304A526BAB
:100D1000D203D8D40120B7E72D4B5A680C231340D7
:100D2000042B23D0FFF784FB801B2A4B9842F3D976
:100D30000320A9E7264B5A680C231340082B15D033
:100D4000FFF776FB801B234B9842F3D903209BE7E8
:100D50001F4B5A680C2313400C2B07D0FFF768FB7E
:100D6000801B1C4B9842F3D903208DE7174B1A6860
:100D700001231340A3420BD914490B68012293436A
:100D800023430B600B681A40A24201D001207BE78D
:100D90002B685B0706D50E4A53680F490B40E9687C
:100DA0000B435360FFF712FF094B5A6812090F23D8
:100DB00013400A4AD35CD840094B18600020FFF763
:100DC0000DFB002060E701205EE7C04600200240E6
:100DD0000010024088130000FFF8FFFFD00E00084B
:100DE00000000020014B18687047C046000000203A
:100DF0000D4885460D480E490E4A002302E0D4589E
:100E0000C4500433C4188C42F9D30B4A0B4C002352
:100E100001E013600432A242FBD3FFF7AFFA00F007
:100E200011F8FFF7FDF9FEE7004000200000002068
:100E300004000020E80E0008040000202400002028
:100E4000FEE7000070B500260C4D0D4C641BA4108D
:100E5000A64209D1002600F019F80A4D0A4C641B7D
:100E6000A410A64205D170BDB300EB5898470136D7
:100E7000EEE7B300EB5898470136F2E7E00E0008C2
:100E8000E00E0008E00E0008E40E0008F8B5C046C9
:100E9000F8BC08BC9E467047F8B5C046F8BC08BC14
:040EA0009E467047B3
:100EA40002030405060708090A0B0C0D0E0F1010A7
:100EB4000102030405060708090A0B0C0D0E0F10A6
:100EC4007372632F6D63752E6300000000000000D1
:0C0ED400000000000102030406070809EA
:040EE000E90000081D
:040EE400C100000841
:040EE80000127A007A
:0400000508000DF1F1
:00000001FF
