:020000040800F2
:1000000000400020DD3E0008A10C0008AB0C0008F9
:1000100000000000000000000000000000000000E0
:10002000000000000000000000000000B10C00080B
:100030000000000000000000BB0C0008C50C000818
:100040002D3F00082D3F00082D3F00082D3F0008E0
:100050002D3F00082D3F00082D3F0008D70C000859
:100060002D3F0008ED0C00082D3F00082D3F000833
:10007000050D00082D3F00082D3F00082D3F00080A
:100080002D3F00082D3F00082D3F00082D3F0008A0
:100090002D3F00082D3F00082D3F00082D3F000890
:1000A0002D3F00082D3F00082D3F00082D3F000880
:1000B0002D3F00082D3F00082D3F00082D3F000870
:1000C00010B5064C2378002B07D1054B002B02D02E
:1000D000044800E000BF0123237010BD7000002021
:1000E00000000000D8470008044B10B5002B03D0D7
:1000F0000349044800E000BF10BDC04600000000F6
:1001000074000020D84700080023C25C0133002A95
:10011000FBD1581E70470000002243088B4274D365
:1001200003098B425FD3030A8B4244D3030B8B42F8
:1001300028D3030C8B420DD3FF22090212BA030C01
:100140008B4202D31212090265D0030B8B4219D3E2
:1001500000E0090AC30B8B4201D3CB03C01A524102
:10016000830B8B4201D38B03C01A5241430B8B424A
:1001700001D34B03C01A5241030B8B4201D30B0333
:10018000C01A5241C30A8B4201D3CB02C01A52415A
:10019000830A8B4201D38B02C01A5241430A8B421D
:1001A00001D34B02C01A5241030A8B4201D30B0206
:1001B000C01A5241CDD2C3098B4201D3CB01C01A20
:1001C000524183098B4201D38B01C01A524143092A
:1001D0008B4201D34B01C01A524103098B4201D318
:1001E0000B01C01A5241C3088B4201D3CB00C01A85
:1001F000524183088B4201D38B00C01A52414308FD
:100200008B4201D34B00C01A5241411A00D2014621
:10021000524110467047FFE701B5002000F006F894
:1002200002BDC0460029F7D076E770477047C04648
:1002300080B500AF00F072FD00F03EFEC0235A0012
:100240000349044B180001F08FFCC046BD4680BD39
:10025000A0000020BC070020F0B58DB000AFF86012
:100260000C2308229446BC44634418000C231A0053
:10027000002103F081FE0023FB6221E00023BB622A
:1002800018E00C200826BB191B18BA6A9200D15836
:10029000FA6A13005B009A18BB6AD218314B9200BD
:1002A000D358C918BB191B18BA6A9200D150BB6A3F
:1002B0000133BB62BB6A022BE3DDFB6A0133FB62E5
:1002C000FB6A7F2BDADD00237B620FE00C2008261F
:1002D000BB191B187A6A9200D358D909BB191B188D
:1002E0007A6A9200D1507B6A01337B627B6A022B6F
:1002F000ECDD00233B6217E00C2308229446BC444B
:1003000063443A6A9200D158174B3A6A9200D25825
:1003100013005B009B18CB189908134B3A6A9200A4
:10032000D1503B6A01333B623B6A012BE4DD0C2375
:1003300008229446BC4463445B683B6000237B60B6
:100340000A4B39687A6819605A60084B1A685B680A
:100350001C0000231D00054B1C605D60C046BD46AF
:100360000DB0F0BDA00000208C00002098000020FF
:1003700080B582B000AF0200FB1D1A70FB1D1B7818
:10038000012B0CD0022B12D0002B00D016E09023B2
:10039000DB0501222021180002F0DDF80EE0902399
:1003A000DB0500222021180002F0D5F806E090239A
:1003B000DB052021180002F0EBF8C046C046BD4620
:1003C00002B080BDB0B5C4B002AF00F0A7F9FA2307
:1003D0009B00180000F0B3F90825FF357C1900F0E8
:1003E00033F803002370FC1DFF3400F039F80300DC
:1003F00023700120FFF7BCFF0020FFF7B9FF7B1936
:100400001D78FB1DFF331B780C4C80225100381DDA
:1004100000932B00220003F0B7FD3B1D1800FFF7EF
:1004200073FE03009AB2391D0548642302F040F9B7
:10043000044B180000F083F9CEE7C046F0470008EF
:1004400008070020B80B000080B500AF00F064F88A
:10045000024B9B781800BD4680BDC046B406002004
:1004600080B500AF00F058F8024B1B781800BD466D
:1004700080BDC046B406002080B500AF094B802285
:10048000D2001A60074B01225A60064B0022DA6044
:10049000044A9023DB051100180001F0C3FEC0469A
:1004A000BD4680BDA006002080B500AF094B80226C
:1004B000D2001A60074B00225A60064B00229A6055
:1004C000044A9023DB051100180001F0ABFEC04682
:1004D000BD4680BDA006002080B584B000AF0200FC
:1004E000FB1D1A700023FB6002E0FB680133FB6018
:1004F0008023DA009023DB051100180002F00EF8CB
:1005000003001A00FB1D1B789342EED0FB68180015
:10051000BD4604B080BD0000B0B5D6B000AF00F05D
:10052000DDFD0200794B1B68D31A794A934200D84B
:10053000E6E000F0D3FD0200744B1A60A0235B00DC
:10054000FB18180005231A00002103F015FDFFF722
:10055000ABFF8023D9009023DB050122180001F0B6
:10056000FAFFFA2000F0EBF8FFF786FF8023D900AE
:100570009023DB050022180001F0EDFF142000F0AD
:10058000DEF88023D9009023DB050122180001F05A
:10059000E2FF282000F0E0F8FFF786FF0A2000F0D5
:1005A000DBF80020FFF798FF0120FFF795FF0023FD
:1005B000AA225200BA18136023E00020FFF78CFF34
:1005C0000100544BAC2252009446BC446344AA251B
:1005D0006D007A1912689200D1507B191B685C1C5F
:1005E0000120FFF779FF01004A4BAC2252009446EC
:1005F000BC446344A200D1507B191B6802337A19B2
:100600001360AA235B00FB181B684F2BD5DD00236A
:10061000A8225200BA18136050E0A82149007B18A4
:100620001B685A003B4BAC2040008446BC446344EA
:100630009200D358A6225200BA1813607B181B6888
:100640005B005A1C334BAC2040008446BC446344DE
:100650009200D358A4225200BA1813607B181B686A
:10066000002B00DA0733DB10A02040003A18D25CE0
:100670009218D1B23A18D154A4235B00FB181A681F
:10068000A6235B00FB181B689A4210D9A8235B00C5
:10069000FB181B68002B00DA0733DB10A02040009A
:1006A0003A18D25C01210A43D1B23A18D154A82297
:1006B0005200BB181B680133BA181360A8235B00F3
:1006C000FB181B68272BA8DDA02040003B181B79D6
:1006D00019003B181B781A003B185B78D3183A189E
:1006E00092789B183A18D2789B1899420AD10A4BF3
:1006F000A0225200BA181168196012791A7102E02A
:10070000C04600E0C046BD4656B0B0BD0000002067
:10071000CF070000A8FEFFFFB406002080B500AFA1
:1007200000F0A0FC00F036F800F0DEF9FFF780FDE5
:1007300000F082F800F054FBC046BD4680BD80B595
:1007400082B000AF78607B68180000F0D1FCC04632
:10075000BD4602B080BD000080B582B000AF7860B9
:100760000A4B1B680A491800FFF7D6FC03001A0061
:100770007B6853437B60C0467B685A1E7A60002BBF
:10078000FAD1C046BD4602B080BDC046040000207C
:10079000404B4C0080B592B000AF14217B18202252
:1007A0001A607B1801221A627B1800225A627B1899
:1007B000180002F08BFE031E04D01B4B4B211800C7
:1007C00000F034F83B1D07221A603B1D03225A60DB
:1007D0003B1D00229A603B1D0022DA603B1D012177
:1007E000180003F0D3F9031E04D00F4B5621180054
:1007F00000F01CF803F052FB0200FA2399001000ED
:10080000FFF78AFC0300180002F0D7FB042002F077
:10081000E1FB01235B4200220021180002F0A8FB4B
:10082000C046BD4612B080BD0848000880B582B001
:1008300000AF78603960FEE780B500AF00F01EF8C9
:100840000C4B0021180000F09DFC0A4B04211800FD
:1008500000F098FC8023DB0007480122190001F01A
:100860007AFE054B00221021180001F074FEC046EC
:10087000BD4680BDC80600200004004880B590B089
:1008800000AF4A4B4A4A1A60484B2F225A60474BE6
:1008900000229A60454BFA229200DA60434B002214
:1008A0001A61424B00225A61404B00229A613F4B31
:1008B000180000F03AFC031E04D03E4B4121180002
:1008C000FFF7B4FF38217B1800221A607B18002242
:1008D0005A607A18354B1100180002F0A1FB031E74
:1008E00004D0344B48211800FFF7A0FF1C217B18CF
:1008F00060221A607B1800225A607B1800229A60DE
:100900007B180022DA607B1800221A617B18002213
:100910005A617B1800229A617918244B0022180032
:1009200000F074FC031E04D0224B54211800FFF782
:100930007DFF1C217B1804221A6179181B4B0422AD
:10094000180000F063FC031E04D01A4B5A21180053
:10095000FFF76CFF3B0000221A603B0000225A6048
:100960003B0000229A603B000022DA603B0000223C
:100970001A613B00802292015A613B0000229A6179
:100980003A000A4B1100180002F08EFB031E04D03F
:10099000084B66211800FFF749FF044B180000F0D0
:1009A0002BF8C046BD4610B080BDC046C80600202A
:1009B000002C01401448000880B584B000AF786076
:1009C0007B681B680A4A93420DD10A4B9A69094B0E
:1009D000802109010A439A61064B9A6980231B0111
:1009E0001340FB60FB68C046BD4604B080BDC046F6
:1009F000002C01400010024090B589B000AF786033
:100A00007B681B681B4A934230D10C217B188022E3
:100A100052001A607B1802225A607B1800229A60EA
:100A20007B180022DA607B1802221A610C007A1807
:100A30009023DB051100180001F0F4FB21007B1866
:100A4000802292001A607B1802225A607B180222D0
:100A50009A607B180022DA607B1802221A617A18E9
:100A60009023DB051100180001F0DCFBC046BD46F9
:100A700009B090BD002C014080B582B000AF194B89
:100A80009A69184B01210A439A61164B9B6901220E
:100A900013407B607B68134BDA69124B8021490558
:100AA0000A43DA610F4BDA6980235B0513403B6030
:100AB0003B6805235B4200220021180002F058FA2F
:100AC00002235B4200220021180002F051FA0123A8
:100AD0005B4200220021180002F04AFAC046BD46DF
:100AE00002B080BD0010024090B589B000AF684BE5
:100AF0005A69674B802109030A435A61644B5A695A
:100B000080231B031340BB60BB68614B5A69604B79
:100B1000802189020A435A615D4B5A6980239B02F6
:100B200013407B607B685A4B5A69594B8021C9023C
:100B30000A435A61564B5A698023DB0213403B60DB
:100B40003B68544B00220221180001F004FD84236D
:100B5000D9009023DB050022180001F0FCFC822361
:100B6000DB004D480022190001F0F5FC0C217B1838
:100B7000802292011A607B18484A5A607B18002232
:100B80009A600C007B18434A1900100001F04AFBE0
:100B900021007B188022D2011A600C003B19002230
:100BA0005A603B1900229A603B193A4A190010001A
:100BB00001F038FB3B1902221A603B1901225A60EE
:100BC0003B1902229A603B190022DA603B19314A34
:100BD0001900100001F026FB3B1910221A603B1986
:100BE00000225A603B1900229A603A199023DB05D3
:100BF0001100180001F016FB21007B1820221A605A
:100C00007B1801225A607B1802229A607B1800220E
:100C1000DA600C007A189023DB051100180001F04F
:100C200001FB21007B188222D2001A607B1801226E
:100C30005A607B1802229A607B180022DA600C004E
:100C40007B18154A1900100001F0ECFA21007B18FE
:100C50008022D2001A607B1801225A607B18002281
:100C60009A607B180022DA607A189023DB05110065
:100C7000180001F0D7FA00220021072002F078F9CD
:100C8000072002F08AF9C046BD4609B090BDC046B3
:100C90000010024000080048000400480000111045
:100CA00080B500AFC046BD4680BD80B500AFFEE751
:100CB00080B500AFC046BD4680BD80B500AFC04620
:100CC000BD4680BD80B500AF00F0FCF902F09CF994
:100CD000C046BD4680BD80B500AF80239B01180093
:100CE00001F068FCC046BD4680BD000080B500AF85
:100CF000034B180002F000FBC046BD4680BDC04655
:100D00007807002080B500AF034B180000F0AEFF5D
:100D1000C046BD4680BDC046BC07002080B582B03D
:100D200000AF0C4B5A690B4B01210A435A61094B26
:100D30005B69012213407B607B680022002109204F
:100D400002F016F9092002F028F9C046BD4602B0AB
:100D500080BDC0460010024080B500AF1A4B1A6833
:100D6000194B01210A431A60174B5A68164B174951
:100D70000A405A60144B1A68134B15490A401A600E
:100D8000114B1A68104B13490A401A600E4B5A68EF
:100D90000D4B11490A405A600B4BDA6A0A4B0F217E
:100DA0008A43DA62084B1A6B074B0C490A401A63F4
:100DB000054B5A6B044B01218A435A63024B0022B4
:100DC0009A60C046BD4680BD001002400CB8FF08C6
:100DD000FFFFF6FEFFFFFBFFFFFFC0FF2CFEFCFF47
:100DE00080B500AF164B174A1A60154BE12252022C
:100DF0005A60134B00229A60114B0022DA60104BAC
:100E000000221A610E4B0C225A610D4B00229A618E
:100E10000B4B0022DA610A4B00221A62084B0022B7
:100E20005A62074B180001F0EBFB031E04D0064B7F
:100E300044211800FFF7FAFCC046BD4680BDC046FD
:100E400008070020004400402448000880B588B00E
:100E500000AF78607B681B68154A934224D1154B1C
:100E6000DA69144B802189020A43DA61114BDA698D
:100E700080239B021340BB60BB680C217B180C22B3
:100E80001A607B1802225A607B1800229A607B1835
:100E90000322DA607B1801221A617A189023DB059D
:100EA0001100180001F0BEF9C046BD4608B080BD73
:100EB000004400400010024080B584B000AF314BC8
:100EC000314A1A602F4B802212065A602D4B0022A5
:100ED0009A602C4B0022DA602A4B01221A61294BBE
:100EE00004225A61274B00229A61264B0022DA61C4
:100EF000244B01221A62234B00225A62214BC22248
:100F0000FF329A621F4B0022DA621E4B01221A63E3
:100F10001C4B00225A631B4B180000F0E7FC031E19
:100F200004D01A4B4C211800FFF780FC3B1D002217
:100F30001A603B1D802252015A603B1D02229A60BA
:100F40003A1D104B1100180000F05EFF031E04D084
:100F50000E4B56211800FFF769FC3B1D01221A6059
:100F60003A1D084B1100180000F04EFF031E04D07C
:100F7000064B5E211800FFF759FCC046BD4604B081
:100F800080BDC046BC07002000240140384800084E
:100F900080B588B000AF78607B681B682C4A9342AC
:100FA00052D12C4B9A692B4B802189000A439A61BC
:100FB000284B9A6980239B001340BB60BB680C21BF
:100FC0007B1803221A607B1803225A607B180022C8
:100FD0009A607A189023DB051100180001F022F9BD
:100FE0001D4B1E4A1A601C4B00225A601A4B0022ED
:100FF0009A60194B8022DA60174B802292001A61A6
:10100000154B802212015A61134B20229A61124B18
:1010100080229201DA61104B180002F0B3F8031E2F
:1010200004D00F4B84211800FFF700FC7B680A4AAC
:10103000DA63094B7A685A62002200210C2001F021
:1010400097FF0C2001F0A9FFC046BD4608B080BD47
:1010500000240140001002407807002008000240F0
:101060003848000880B500AF074B1A68064B1021BE
:101070000A431A60002000F009F8FFF7FDFC002386
:101080001800BD4680BDC0460020024080B582B039
:1010900000AF786002F002FF0200FA23990010000E
:1010A000FFF73AF80300180001F087FF7968012381
:1010B0005B420022180001F05BFF00231800BD46D0
:1010C00002B080BD80B500AF034B1B685A1C024BB9
:1010D0001A60C046BD4680BD0808002080B500AF3C
:1010E000024B1B681800BD4680BDC04608080020A2
:1010F00080B584B000AF7860FFF7F0FF0300BB60FD
:101100007B68FB60FB68013302D0FB680133FB6046
:10111000C046FFF7E3FF0200BB68D31AFA689A42A1
:10112000F7D8C046BD4604B080BD80B582B000AFE0
:1011300078607B68002B01D101231EE07B683D2293
:101140009B5CDBB2002B07D17B683C2200219954C9
:101150007B681800FFF730FC7B683D220221995420
:101160007B681A687B6804331900100000F006F9E8
:101170007B683D220121995400231800BD4602B02E
:1011800080BD000080B582B000AF786039607B68B8
:101190001B6839680122180000F086FB7B681B6819
:1011A000164A93420ED07B681B68154A934209D0B9
:1011B0007B681B68134A934204D07B681B68124A01
:1011C000934201D1012300E00023002B08D07B686B
:1011D0001B685A6C7B681B68802109020A435A64A9
:1011E0007B681B681A687B681B6801210A431A60C8
:1011F00000231800BD4602B080BDC046002C01404F
:1012000000400140004401400048014080B584B0E6
:1012100000AFF860B9607A60FB683C229B5C012BF0
:1012200001D10223A4E0FB683C2201219954FB6810
:101230003D22022199547B68042B29D002D8002B2F
:1012400005D08CE0082B46D00C2B65D087E0FB68DE
:101250001B68BA681100180000F012F9FB681B68DF
:101260009A69FB681B6808210A439A61FB681B683E
:101270009A69FB681B6804218A439A61FB681B68B2
:101280009969BB681A69FB681B680A439A6166E042
:10129000FB681B68BA681100180000F07FF9FB6852
:1012A0001B689A69FB681B68802109010A439A61DF
:1012B000FB681B689A69FB681B682F490A409A61A2
:1012C000FB681B689969BB681B691A02FB681B688D
:1012D0000A439A6143E0FB681B68BA681100180072
:1012E00000F0E6F9FB681B68DA69FB681B680821F7
:1012F0000A43DA61FB681B68DA69FB681B68042132
:101300008A43DA61FB681B68D969BB681A69FB68A4
:101310001B680A43DA6122E0FB681B68BA681100A7
:10132000180000F051FAFB681B68DA69FB681B685B
:10133000802109010A43DA61FB681B68DA69FB68EE
:101340001B680D490A40DA61FB681B68D969BB68F4
:101350001B691A02FB681B680A43DA61C046FB6816
:101360003D2201219954FB683C220021995400231D
:101370001800BD4604B080BDFFFBFFFF80B584B000
:1013800000AF786039600023FB607B681B68FB60FE
:101390007B68344A934208D07A688023DB059A42FE
:1013A00003D07B68304A934208D1FB687022934394
:1013B000FB603B685B68FA681343FB607B68294A03
:1013C000934218D07A688023DB059A4213D07B6859
:1013D000254A93420FD07B68244A93420BD07B6806
:1013E000234A934207D07B68224A934203D07B680A
:1013F000214A934208D1FB68204A1340FB603B68B6
:10140000DB68FA681343FB60FB68802293431A0091
:101410003B685B691343FB607B68FA681A603B6852
:101420009A687B68DA623B681A687B689A627B68B4
:101430000C4A93420BD07B680D4A934207D07B68DD
:101440000C4A934203D07B680B4A934203D13B681A
:101450001A697B681A637B6801225A61C046BD46DF
:1014600004B080BD002C014000040040002000407A
:10147000004001400044014000480140FFFCFFFFE4
:1014800080B586B000AF786039600023FB60002330
:101490007B6100233B617B681B6A012293431A0036
:1014A0007B681A627B681B6A7B617B685B683B6157
:1014B0007B689B69FB60FB6870229343FB60FB6861
:1014C00003229343FB603B681B68FA681343FB608D
:1014D0007B69022293437B613B689B687A69134373
:1014E0007B617B68274A93420BD07B68264A9342F4
:1014F00007D07B68254A934203D07B68244A9342F5
:101500000CD17B69082293437B613B68DB687A6975
:1015100013437B617B69042293437B617B68194A97
:1015200093420BD07B68184A934207D07B68174AD6
:10153000934203D07B68164A934211D13B69154A06
:1015400013403B613B69144A13403B613B685B6954
:101550003A6913433B613B689B693A6913433B61BA
:101560007B683A695A607B68FA689A613B685A6896
:101570007B685A637B687A691A62C046BD4606B0CA
:1015800080BDC046002C01400040014000440140A5
:1015900000480140FFFEFFFFFFFDFFFF80B586B062
:1015A00000AF786039600023FB6000237B6100237B
:1015B0003B617B681B6A102293431A007B681A62A6
:1015C0007B681B6A7B617B685B683B617B689B69AE
:1015D000FB60FB682E4A1340FB60FB682D4A1340FA
:1015E000FB603B681B681B02FA681343FB607B6966
:1015F000202293437B613B689B681B017A691343FC
:101600007B617B68244A93420DD17B69802293439E
:101610007B613B68DB681B017A6913437B617B69F3
:10162000402293437B617B681B4A93420BD07B68CB
:101630001A4A934207D07B68194A934203D07B68C9
:10164000184A934213D13B69174A13403B613B69E7
:10165000164A13403B613B685B699B003A69134340
:101660003B613B689B699B003A6913433B617B6824
:101670003A695A607B68FA689A613B685A687B6885
:101680009A637B687A691A62C046BD4606B080BD1F
:10169000FF8FFFFFFFFCFFFF002C014000400140D7
:1016A0000044014000480140FFFBFFFFFFF7FFFF40
:1016B00080B586B000AF786039600023FB600023FE
:1016C0007B6100233B617B681B6A354A1A407B685B
:1016D0001A627B681B6A7B617B685B683B617B6825
:1016E000DB69FB60FB6870229343FB60FB680322AD
:1016F0009343FB603B681B68FA681343FB607B699C
:10170000284A13407B613B689B681B027A6913433C
:101710007B617B68244A93420DD17B69234A134045
:101720007B613B68DB681B027A6913437B617B69E1
:101730001F4A13407B617B681B4A93420BD07B6836
:101740001C4A934207D07B681B4A934203D07B68B4
:101750001A4A934213D13B69194A13403B613B69D2
:10176000184A13403B613B685B691B013A691343AC
:101770003B613B689B691B013A6913433B617B6892
:101780003A695A607B68FA68DA613B685A687B6834
:10179000DA637B687A691A62C046BD4606B080BDCE
:1017A000FFFEFFFFFFFDFFFF002C0140FFF7FFFFE3
:1017B000FFFBFFFF004001400044014000480140A2
:1017C000FFEFFFFFFFDFFFFF80B586B000AF78605F
:1017D000396000233B610023FB6000237B617B6851
:1017E0001B6A284A1A407B681A627B681B6AFB6086
:1017F0007B685B687B617B68DB693B613B69224A94
:1018000013403B613B69214A13403B613B681B68C5
:101810001B023A6913433B61FB681D4A1340FB609E
:101820003B689B681B03FA681343FB607B68194A9B
:1018300093420BD07B68184A934207D07B68174AC3
:10184000934203D07B68164A934209D17B69154ABB
:1018500013407B613B685B699B017A6913437B6141
:101860007B687A695A607B683A69DA613B685A68D2
:101870007B681A647B68FA681A62C046BD4606B087
:1018800080BDC046FFEFFFFFFF8FFFFFFFFCFFFFA4
:10189000FFDFFFFF002C01400040014000440140F9
:1018A00000480140FFBFFFFF80B586B000AFF86081
:1018B000B9607A6000237B610122BB689A40130003
:1018C0007B61FB681B6A7A69D2431A40FB681A6223
:1018D000FB681A6A7968BB6899400B001A43FB6879
:1018E0001A62C046BD4606B080BD000080B584B017
:1018F00000AF78600F23FB1800221A700023BB6032
:101900007B68002B01D1012324E17B685B6C002BF9
:101910000AD17B6800229A647B6840220021995496
:101920007B681800FFF734FB7B685B6C1022134068
:1019300000D002E10F23FB181B78002B00D0FCE045
:101940007B681B689B680422134000D0F5E07B682D
:101950005B6C824A134002221A437B685A647B689C
:101960001B689B6803221340012B12D17B681B6804
:101970001B6801221340012B09D07B681B68DA68C1
:1019800080231B021A4080231B029A4201D10123AB
:1019900000E00023002B16D17B681B68DB6818224F
:1019A000934319007B689A687B681B680A43DA6076
:1019B0007B681B681B699B0099087B685A687B6879
:1019C0001B680A431A617B681B68DA687B681B68BE
:1019D00063490A40DA607B689B699A037B68DB692C
:1019E000DB031A437B681B6A5B031A437B685B6BF0
:1019F000012B02D080235B0100E000231A437B68A7
:101A0000DB681A437B681B69022B01D1042300E0C9
:101A100000231A437B681B6B5B001343BA681343B4
:101A2000BB607B685B6A012B15D17B681B6A002B4E
:101A300005D1BB68802252021343BB600BE07B6878
:101A40005B6C20221A437B685A647B689B6C012282
:101A50001A437B689A647B689A6AC223FF339A426E
:101A600007D07B689A6A7B68DB6A1343BA681343C2
:101A7000BB607B681B68D9687B681B68BA680A43CF
:101A8000DA607B689A6B80235B059A421BD07B6887
:101A90009B6B012B17D07B689B6B022B13D07B6851
:101AA0009B6B032B0FD07B689B6B042B0BD07B684D
:101AB0009B6B052B07D07B689B6B062B03D07B6849
:101AC0009B6B072B12D17B681B685A697B681B686C
:101AD00007218A435A617B681B6859697B689B6B45
:101AE00007221A407B681B680A435A617B681B689F
:101AF000DB681C4A1340BA689A420BD17B6800220B
:101B00009A647B685B6C0322934301221A437B68CF
:101B10005A641CE07B685B6C1222934310221A43C8
:101B20007B685A647B689B6C01221A437B689A64C9
:101B30000F23FB1801221A7009E07B685B6C1022EE
:101B40001A437B685A640F23FB1801221A700F2373
:101B5000FB181B781800BD4604B080BDFDFEFFFFDA
:101B60001902FEFFE7FF3F8390B587B000AFF86032
:101B7000B9607A601723FB1800221A70FB681B6893
:101B80009B68042213405ED1FB6840229B5C012BC2
:101B900001D102235EE0FB68402201219954FB68D9
:101BA000DB69012B07D01723FC18FB68180000F035
:101BB00039FA030023701723FB181B78002B46D13A
:101BC000FB685B6C254A1340802252001A43FB6875
:101BD0005A64FB6800229A64FB68402200219954F1
:101BE000FB68DB6B1E4A9A62FB68DB6B1D4ADA629C
:101BF000FB68DB6B1C4A1A63FB681B681C221A60BB
:101C0000FB681B685A68FB681B6810210A435A600E
:101C1000FB681B68DA68FB681B6801210A43DA600D
:101C2000FB68D86BFB681B6840331900BA687B6897
:101C300001F0FCFAFB681B689A68FB681B680421CA
:101C40000A439A6003E01723FB1802221A70172335
:101C5000FB181B781800BD4607B090BDFEF0FFFFD3
:101C60001D210008D1210008EF21000880B582B0B5
:101C700000AF78607B681B681B6804221340042B4C
:101C800006D17B681B685B6804221340042B0DD0CF
:101C90007B681B681B6808221340082B4FD17B68A8
:101CA0001B685B6808221340082B48D17B685B6C7B
:101CB0001022134006D17B685B6C802292001A438D
:101CC0007B685A647B681B68DA68C0231B01134079
:101CD0002DD17B681B6A002B29D17B681B681B6890
:101CE00008221340082B22D17B681B689B680422C2
:101CF000134010D17B681B685A687B681B680C21F5
:101D00008A435A607B685B6C324A134001221A4353
:101D10007B685A640BE07B685B6C20221A437B680B
:101D20005A647B689B6C01221A437B689A647B68C7
:101D30001800FEF791FA7B681B680C221A607B681A
:101D40001B681B6880221340802B15D17B681B68A1
:101D50005B6880221340802B0ED17B685B6C8022F5
:101D600052021A437B685A647B68180000F03CF802
:101D70007B681B6880221A607B681B681B681022C6
:101D80001340102B22D17B681B685B681022134024
:101D9000102B1BD17B685B6B012B05D07B681B680C
:101DA000DB68012213400DD07B689B6C02221A4332
:101DB0007B689A647B681B6810221A607B68180035
:101DC00000F01AF87B681B6810221A60C046BD46F6
:101DD00002B080BDFEFEFFFF80B582B000AF78602C
:101DE000C046BD4602B080BD80B582B000AF78600D
:101DF000C046BD4602B080BD80B582B000AF7860FD
:101E0000C046BD4602B080BD80B584B000AF7860EA
:101E100039600F23FB1800221A700023BB607B6817
:101E20009A6B80235B059A4211D07B689B6B012BD8
:101E30000DD07B689B6B022B09D07B689B6B032BBF
:101E400005D07B689B6B042B01D07B689B6B7B6808
:101E500040229B5C012B01D10223D0E07B68402211
:101E6000012199547B681B689B680422134000D0B1
:101E7000B4E03B685B68644A934200D182E07B68CF
:101E80001B68996A3B681B6801229A407B681B6843
:101E90000A439A627B689A6B80235B059A4237D02B
:101EA0007B689B6B012B33D07B689B6B022B2FD005
:101EB0007B689B6B032B2BD07B689B6B042B27D001
:101EC0007B689B6B052B23D07B689B6B062B1FD0FD
:101ED0007B689B6B072B1BD03B689A687B681B68F1
:101EE0005B6907210B409A4212D07B681B685A69D4
:101EF0007B681B6807218A435A617B681B685969A4
:101F00003B689B6807221A407B681B680A435A613A
:101F10003B681B68102B07D03B681B68112B03D054
:101F20003B681B68122B63D1384B19683B681B68F0
:101F3000102B09D03B681B68112B02D18023DB03D7
:101F400004E080235B0401E080231B042F4A0B4341
:101F500013603B681B68102B4AD12D4B1B682D4921
:101F60001800FEF7D9F803001A0013009B009B1815
:101F70005B00BB6002E0BB68013BBB60BB68002B41
:101F8000F9D135E07B681B689A6A3B681B680121C0
:101F900099400B00D9437B681B680A409A623B68F2
:101FA0001B68102B07D03B681B68112B03D03B68C4
:101FB0001B68122B1CD1154B19683B681B68102B32
:101FC00007D03B681B68112B01D1134B02E0134B68
:101FD00000E0134B0D4A0B40136009E07B685B6C1B
:101FE00020221A437B685A640F23FB1801221A70BF
:101FF0007B684022002199540F23FB181B7818009E
:10200000BD4604B080BDC046011000000827014055
:102010000400002040420F00FFFFBFFFFFFFFFFE54
:10202000FFFF7FFF80B584B000AF78600023FB60C6
:102030000023BB607B681B689B6803221340012B55
:1020400012D17B681B681B6801221340012B09D049
:102050007B681B68DA6880231B021A4080231B02FE
:102060009A4201D1012300E00023002B4BD17B6871
:102070001B689B68264A13400DD07B685B6C10225E
:102080001A437B685A647B689B6C01221A437B6805
:102090009A64012338E07B681B689A687B681B6838
:1020A00001210A439A601B4B1B681B491800FEF76D
:1020B00033F80300BB6002E0BB68013BBB60BB6858
:1020C000002BF9D1FFF70AF80300FB6014E0FFF7DB
:1020D00005F80200FB68D31A022B0DD97B685B6CF4
:1020E00010221A437B685A647B689B6C01221A4356
:1020F0007B689A64012307E07B681B681B680122E8
:102100001340012BE3D100231800BD4604B080BD6D
:10211000170000800400002040420F0080B584B00A
:1021200000AF78607B685B6AFB60FB685B6C502289
:10213000134040D1FB685B6C802292001A43FB681D
:102140005A64FB681B68DA68C0231B0113402DD159
:10215000FB681B6A002B29D1FB681B681B680822DF
:102160001340082B22D1FB681B689B680422134094
:1021700010D1FB681B685A68FB681B680C218A43F6
:102180005A60FB685B6C114A134001221A43FB68DA
:102190005A640BE0FB685B6C20221A43FB685A64AC
:1021A000FB689B6C01221A43FB689A64FB68180069
:1021B000FEF752F805E0FB68DB6B1B6B7A681000DA
:1021C0009847C046BD4604B080BDC046FEFEFFFF36
:1021D00080B584B000AF78607B685B6AFB60FB68A9
:1021E0001800FFF7F9FDC046BD4604B080BD80B5BC
:1021F00084B000AF78607B685B6AFB60FB685B6CF7
:1022000040221A43FB685A64FB689B6C04221A4301
:10221000FB689A64FB681800FFF7EEFDC046BD46F8
:1022200004B080BD80B586B000AF7860396000230F
:102230007B610023FB6000233B6155E13B681B6829
:1022400001217A6991400A001340FB60FB68002B72
:1022500000D146E13B685B68022B03D03B685B68BA
:10226000122B23D17B69DA087B6808329200D3589D
:102270003B617B69072213409B000F229A401300A9
:10228000DA433B6913403B613B681A697B6907216C
:102290000B409B009A4013003A6913433B617B69F2
:1022A000DA087B68083292003969D1507B681B6874
:1022B0003B617B695B0003229A401300DA433B6970
:1022C00013403B613B685B6803221A407B695B00FB
:1022D0009A4013003A6913433B617B683A691A607C
:1022E0003B685B68012B0BD03B685B68022B07D017
:1022F0003B685B68112B03D03B685B68122B30D1C5
:102300007B689B683B617B695B0003229A401300FA
:10231000DA433B6913403B613B68DA687B695B00E9
:102320009A4013003A6913433B617B683A699A60AB
:102330007B685B683B6101227B699A401300DA434A
:102340003B6913403B613B685B681B0901221A40F3
:102350007B699A4013003A6913433B617B683A6991
:102360005A607B68DB683B617B695B0003229A40B3
:102370001300DA433B6913403B613B689A687B6911
:102380005B009A4013003A6913433B617B683A69EA
:10239000DA603B685A6880235B05134000D1A0E0F7
:1023A000574B9A69564B01210A439A61544B9B69DA
:1023B00001221340BB60BB68524A7B699B08023311
:1023C0009B009B583B617B69032213409B000F22BB
:1023D0009A401300DA433B6913403B617A689023CB
:1023E000DB059A4219D07B68474A934213D07B6839
:1023F000464A93420DD07B68454A934207D07B689A
:10240000444A934201D1042308E0052306E0032354
:1024100004E0022302E0012300E000237A690321A3
:102420000A40920093403A6913433B6135497B6906
:102430009B0802339B003A695A50374B1B683B613B
:10244000FB68DA433B6913403B613B685A68802371
:102450005B02134003D03A69FB6813433B612E4B88
:102460003A691A602C4B5B683B61FB68DA433B6955
:1024700013403B613B685A6880239B02134003D0A2
:102480003A69FB6813433B61234B3A695A60224B1C
:102490009B683B61FB68DA433B6913403B613B68E7
:1024A0005A6880235B03134003D03A69FB681343E7
:1024B0003B61194B3A699A60174BDB683B61FB68DB
:1024C000DA433B6913403B613B685A6880239B03B6
:1024D000134003D03A69FB6813433B610E4B3A69E2
:1024E000DA607B6901337B613B681A687B69DA409B
:1024F000131E00D0A2E6C046BD4606B080BDC04651
:10250000001002400000014000040048000800489C
:10251000000C0048001000480004014080B584B061
:1025200000AF78600A00BB1C1A807B681B69BA1C6C
:102530001288134004D00F23FB1801221A7003E005
:102540000F23FB1800221A700F23FB181B781800AA
:10255000BD4604B080BD80B582B000AF7860080091
:102560001100BB1C021C1A807B1C0A1C1A707B1CED
:102570001B78002B04D0BB1C1A887B689A6103E08F
:10258000BB1C1A887B689A62C046BD4602B080BDFB
:1025900080B582B000AF78600A00BB1C1A807B68EF
:1025A0005A69BB1C1B885A407B685A61C046BD46AD
:1025B00002B080BD80B582B000AF0200BB1D1A80A2
:1025C000094B5B69BA1D1288134008D0064BBA1D2F
:1025D00012885A61BB1D1B88180000F007F8C0461E
:1025E000BD4602B080BDC0460004014080B582B047
:1025F00000AF0200BB1D1A80C046BD4602B080BDC0
:1026000080B582B000AF78607B68002B01D10123D8
:1026100047E07B6869229B5CDBB2002B07D17B68BB
:102620006822002199547B681800FEF70FFC7B6834
:102630006922242199547B681B681A687B681B688F
:1026400001218A431A607B68180000F0D5F8030066
:10265000012B01D1012324E07B685B6A002B03D0AE
:102660007B68180000F084FA7B681B685A687B68F6
:102670001B680E490A405A607B681B689A687B6831
:102680001B682A218A439A607B681B681A687B68EA
:102690001B6801210A431A607B68180000F01CFBCC
:1026A00003001800BD4602B080BDC046FFB7FFFF63
:1026B00080B588B002AFF860B9603B60BB1D1A807E
:1026C00000237B61FB6869229B5CDBB2202B00D07E
:1026D0008CE0BB68002B03D0BB1D1B88002B01D1F5
:1026E000012384E0FB689A6880235B019A4209D148
:1026F000FB681B69002B05D1BB680122134001D088
:10270000012374E0FB6868229B5C012B01D102234A
:102710006DE0FB68682201219954FB680022DA66AB
:10272000FB68692221219954FEF7D8FC03007B61E4
:10273000FB68BA1D502112885A52FB68BA1D5221FB
:1027400012885A5235E0FB6852229B5A9BB2013BD9
:1027500099B2FB68522299527A69F8683B680093F3
:1027600013000022802100F00FFB031E01D0032381
:102770003DE0FB689A6880235B019A4211D1FB68B7
:102780001B69002B0DD1BB683B613B691A88FB6854
:102790001B68D205D20D92B21A85BB680233BB60AA
:1027A00007E0BB685A1CBA601A78FB681B6892B2D3
:1027B0001A85FB6852229B5A9BB2002BC3D17A69BF
:1027C000F8683B68009313000022402100F0DCFA17
:1027D000031E01D003230AE0FB68692220219954DB
:1027E000FB68682200219954002300E002231800AE
:1027F000BD4606B080BD000090B587B000AF7860E0
:102800000023FB601723FB1810221A700A23FB1801
:1028100000221A801423FB1800221A801323FB18AD
:1028200000221A707B689A687B681B691A437B6870
:102830005B691A437B68DB691343FB607B681B6839
:102840001B68C14A134019007B681B68FA680A4379
:102850001A607B681B685B68BC4A134019007B6880
:10286000DA687B681B680A435A607B689A697B68F0
:102870001B6A1343FB607B681B689B68B44A134068
:1028800019007B681B68FA680A439A607B681B68BA
:10289000B04A934225D1B04B1B6B03221340012B4E
:1028A0000FD004D3022B11D0032B05D013E0172334
:1028B000FB1800221A7064E01723FB1802221A701A
:1028C0005FE01723FB1804221A705AE01723FB1845
:1028D00008221A7055E01723FB1810221A70C04600
:1028E0004FE07B681B689D4A934232D19A4B1A6B2A
:1028F000C0239B02134080225202934219D08022AF
:102900005202934202D8002B09D01CE0802292028E
:10291000934213D0C0229202934205D013E01723B2
:10292000FB1800221A702CE01723FB1802221A70E1
:1029300027E01723FB1804221A7022E01723FB1844
:1029400008221A701DE01723FB1810221A70C046C7
:1029500017E07B681B68824A934204D11723FB1857
:1029600000221A700DE07B681B687E4A934204D1F6
:102970001723FB1800221A7003E01723FB181022FC
:102980001A707B68DA6980231B029A4200D077E0D4
:102990001723FB181B78022B1CD002DC002B05D060
:1029A0004FE0042B27D0082B39D04AE001F080FA01
:1029B00003005A007B685B685B08D2187B685B6821
:1029C00019001000FDF7A8FB03001A001423FB18E0
:1029D0001A803BE07B685B685B08634A9A187B68F7
:1029E0005B6819001000FDF797FB03001A00142321
:1029F000FB181A802AE001F0D3F903005A007B6823
:102A00005B685B08D2187B685B6819001000FDF7F3
:102A100083FB03001A001423FB181A8016E07B685E
:102A20005B685B08802252029A187B685B68190019
:102A30001000FDF771FB03001A001423FB181A8025
:102A400004E01323FB1801221A70C0460A203B1829
:102A500014243A1912880F218A431A803B191B88C3
:102A60005B109BB20722134099B23B183A181288A8
:102A70000A431A807B681B683A181288DA605BE0A8
:102A80001723FB181B78022B1BD002DC002B05D070
:102A90004DE0042B26D0082B37D048E001F008FA8F
:102AA00002007B685B685B08D2187B685B68190072
:102AB0001000FDF731FB03009AB27B681B68DA60F7
:102AC0003AE07B685B685B08284A9A187B685B6819
:102AD00019001000FDF720FB03009AB27B681B6809
:102AE000DA6029E001F05CF902007B685B685B0852
:102AF000D2187B685B6819001000FDF70DFB03001E
:102B00009AB27B681B68DA6016E07B685B685B08DA
:102B1000802212029A187B685B6819001000FDF78A
:102B2000FBFA03009AB27B681B68DA6004E01323A7
:102B3000FB1801221A70C0461323FB181B781800DB
:102B4000BD4607B090BDC046F369FFEFFFCFFFFF62
:102B5000FFF4FFFF00380140001002400044004035
:102B600000480040004C00400024F40000127A00AD
:102B700080B582B000AF78607B685B6A0122134049
:102B80000BD07B681B685B684A4A134019007B685E
:102B90009A6A7B681B680A435A607B685B6A0222F8
:102BA00013400BD07B681B685B68434A13401900D5
:102BB0007B68DA6A7B681B680A435A607B685B6AD9
:102BC000042213400BD07B681B685B683B4A1340B0
:102BD00019007B681A6B7B681B680A435A607B6824
:102BE0005B6A082213400BD07B681B685B68344A21
:102BF000134019007B685A6B7B681B680A435A6054
:102C00007B685B6A102213400BD07B681B689B6853
:102C10002C4A134019007B689A6B7B681B680A4337
:102C20009A607B685B6A202213400BD07B681B682C
:102C30009B68254A134019007B68DA6B7B681B6828
:102C40000A439A607B685B6A402213401DD07B6810
:102C50001B685B681D4A134019007B681A6C7B680F
:102C60001B680A435A607B681A6C80235B039A4294
:102C70000BD17B681B685B68154A134019007B68A1
:102C80005A6C7B681B680A435A607B685B6A8022C7
:102C900013400BD07B681B685B680E4A1340190019
:102CA0007B689A6C7B681B680A435A60C046BD46C5
:102CB00002B080BDFFFFFDFFFFFFFEFFFFFFFBFF38
:102CC000FF7FFFFFFFEFFFFFFFDFFFFFFFFFEFFFD4
:102CD000FFFF9FFFFFFFF7FF80B586B002AF786070
:102CE0000023FB607B680022DA66FEF7F7F9030039
:102CF000FB607B681B68214A934204D07B681B6899
:102D00001F4A934229D17B681B681B680822134025
:102D1000082B0DD1FA68802399037868194B00932A
:102D20001300002200F030F8031E01D0032321E03D
:102D30007B681B681B6804221340042B0DD1FA68C2
:102D40008023D90378680F4B00931300002200F012
:102D50001BF8031E01D003230CE07B6869222021AD
:102D600099547B686A22202199547B68682200214B
:102D7000995400231800BD4604B080BD00380140BE
:102D800000440040FFFFFF0180B584B000AFF86051
:102D9000B9603B60FB1D1A702BE0BB69013328D082
:102DA000BB69002B07D0FEF799F902003B68D31AE4
:102DB000BA699A421DD2FB681B681A68FB681B68D7
:102DC00016490A401A60FB681B689A68FB681B6812
:102DD00001218A439A60FB68692220219954FB688B
:102DE0006A2220219954FB68682200219954032308
:102DF0000FE0FB681B68DB69BA681340BA68D31A36
:102E00005A425341DBB21A00FB1D1B789A42C4D0D0
:102E100000231800BD4604B080BDC0465FFEFFFF22
:102E200080B582B000AF0200FB1D1A70FB1D1B783D
:102E30001A001F231A40044B012191400A001A6016
:102E4000C046BD4602B080BD00E100E090B583B051
:102E500000AF02003960FB1D1A70FB1D1B787F2B31
:102E600032D92F4AFB1D1B7819000F230B40083B5A
:102E70009B0806339B00D31804331B68FA1D127895
:102E8000110003220A40D200FF2191400A00D243E0
:102E90001A4011003B689B01FF221A40FB1D1B7862
:102EA000180003230340DB009A401D48FB1D1B78DC
:102EB0001C000F232340083B9B080A4306339B005A
:102EC000C31804331A6027E0164AFB1D1B785BB257
:102ED0009B08C0339B009B58FA1D127811000322F7
:102EE0000A40D200FF2191400A00D2431A4011004B
:102EF0003B689B01FF221A40FB1D1B78180003232F
:102F00000340DB009A400748FB1D1B785BB29B081F
:102F10000A43C0339B001A50C046BD4603B090BD63
:102F200000ED00E000E100E080B582B000AF786025
:102F30007B68013B0C4A934201D9012310E00B4B03
:102F40007A68013A5A6001235B4203211800FFF7B7
:102F50007DFF064B00229A60044B07221A60002373
:102F60001800BD4602B080BDFFFFFF0010E000E08A
:102F700080B584B000AFB9607A600F217B18021C65
:102F80001A70BA687B181B785BB211001800FFF743
:102F90005DFFC046BD4604B080BD80B582B000AFC5
:102FA0000200FB1D1A70FB1D1B785BB21800FFF7B7
:102FB00037FFC046BD4602B080BD80B582B000AFCD
:102FC00078607B681800FFF7AFFF03001800BD466C
:102FD00002B080BD80B582B000AF78607B68042B02
:102FE00006D1084B1A68074B04210A431A6005E012
:102FF000044B1A68034B04218A431A60C046BD463D
:1030000002B080BD10E000E080B500AF00F003F832
:10301000C046BD4680BD80B500AFC046BD4680BD40
:1030200080B582B000AF786039607B683C229B5CE1
:10303000012B01D1022332E07B683C22012199540B
:103040007B683D22022199547B681B685A687B6823
:103050001B6870218A435A607B681B6859683B680B
:103060001A687B681B680A435A607B681B689A6809
:103070007B681B6880218A439A607B681B6899681B
:103080003B685A687B681B680A439A607B683D22EC
:10309000012199547B683C22002199540023180097
:1030A000BD4602B080BD000080B584B000AF78603E
:1030B00039600023FB607B683C229B5C012B01D1C3
:1030C00002234DE07B683C22012199547B683D221C
:1030D00002219954FB68FF2293431A003B68DB6886
:1030E0001343FB60FB68204A1A403B689B6813430C
:1030F000FB60FB681D4A1A403B685B681343FB603A
:10310000FB681B4A1A403B681B681343FB60FB6863
:10311000184A1A403B681B691343FB60FB68164A58
:103120001A403B685B691343FB60FB68134A1A4013
:103130003B689B691343FB60FB68114A1A403B687C
:103140009B691343FB607B681B68FA685A647B6861
:103150003D22012199547B683C220021995400238F
:103160001800BD4604B080BDFFFCFFFFFFFBFFFF62
:10317000FFF7FFFFFFEFFFFFFFDFFFFFFFBFFFFFD7
:10318000FF7FFFFF80B584B000AF78600023FB6055
:103190007B68002B01D1012342E07B6821220221C0
:1031A00099547B681B681B68FB60FB681E4A1340D0
:1031B000FB607B685A687B689B681A437B68DB68A6
:1031C0001A437B681B691A437B685B691A437B68F7
:1031D0009B691A437B68DB691343FA681343FB60FE
:1031E0007B681B68FA681A607B68180000F052F967
:1031F0007B6800229A627B680022DA627B68002288
:103200001A637B6800225A637B6800229A637B689A
:103210002122012199547B68202200219954002306
:103220001800BD4604B080BD0FC0FFFF80B586B05A
:1032300000AFF860B9607A603B601723FB1800228A
:103240001A70FB6820229B5C012B01D102234FE006
:10325000FB68202201219954FB6821229B5CDBB290
:10326000012B3AD1FB68212202219954FB680022EC
:103270009A63FB681B681A68FB681B6801218A4314
:103280001A603B687A68B968F86800F0D7F8FB689C
:10329000DB6A002B08D0FB681B681A68FB681B6898
:1032A0000E210A431A600FE0FB681B681A68FB686E
:1032B0001B680A210A431A60FB681B681A68FB68CE
:1032C0001B6804218A431A60FB681B681A68FB6844
:1032D0001B6801210A431A6007E0FB6820220021D5
:1032E00099541723FB1802221A701723FB181B7816
:1032F0001800BD4606B080BD80B584B000AF7860D0
:103300007B68DB6B1B68FB607B681B681B68BB60B2
:103310007B681B6C04229A401300FA68134024D087
:10332000BB680422134020D07B681B681B682022E6
:10333000134007D17B681B681A687B681B680421EF
:103340008A431A607B681A6C7B68DB6B04219140AE
:103350000A005A607B68DB6A002B00D16AE07B6858
:10336000DB6A7A681000984764E07B681B6C022275
:103370009A401300FA6813402BD0BB680222134016
:1033800027D07B681B681B68202213400BD17B6809
:103390001B681A687B681B680A218A431A607B686D
:1033A0002122012199547B681A6C7B68DB6B022116
:1033B00091400A005A607B682022002199547B6862
:1033C0009B6A002B36D07B689B6A7A68100098470E
:1033D00030E07B681B6C08229A401300FA681340A7
:1033E00028D0BB680822134024D07B681B681A6869
:1033F0007B681B680E218A431A607B681A6C7B68A5
:10340000DB6B012191400A005A607B6801229A63BC
:103410007B682122012199547B6820220021995444
:103420007B681B6B002B05D07B681B6B7A681000D8
:103430009847FFE7C046BD4604B080BD80B584B064
:1034400000AFF860B9607A603B60FB681A6CFB689B
:10345000DB6B012191400A005A60FB681B683A68E7
:103460005A60FB685B68102B08D1FB681B687A68A0
:103470009A60FB681B68BA68DA6007E0FB681B6843
:10348000BA689A60FB681B687A68DA60C046BD4615
:1034900004B080BD80B582B000AF78607B681B68E7
:1034A000084A9446634414211800FCF735FE0300D3
:1034B0009A007B681A647B68034ADA63C046BD469B
:1034C00002B080BDF8FFFDBF0000024080B586B0AD
:1034D00000AF786000233B617B681B6801221340CA
:1034E00000D18DE0C54B5B680C221340042B0ED03D
:1034F000C24B5B680C221340082B16D1BF4B5A6895
:10350000C0235B021A4080235B029A420DD1BB4B61
:103510001A6880239B02134000D170E07B685B68CF
:10352000002B00D06BE0012329E37B685B68012B53
:1035300007D1B24B1A68B14B802149020A431A6085
:103540002FE07B685B68002B0CD1AC4B1A68AB4B4F
:10355000AB490A401A60A94B1A68A84BA9490A400E
:103560001A601EE07B685B68052B0ED1A34B1A68BE
:10357000A24B8021C9020A431A60A04B1A689F4BD4
:10358000802149020A431A600BE09C4B1A689B4B4E
:103590009B490A401A60994B1A68984B99490A400E
:1035A0001A607B685B68002B14D0FDF797FD030061
:1035B0003B6108E0FDF792FD02003B69D31A642BE2
:1035C00001D90323DBE28D4B1A6880239B02134051
:1035D000F0D015E0FDF782FD03003B6108E0FDF748
:1035E0007DFD02003B69D31A642B01D90323C6E297
:1035F000824B1A6880239B021340F0D100E0C04642
:103600007B681B680222134000D16CE07B4B5B6837
:103610000C2213400ED0794B5B680C221340082B10
:103620001FD1764B5A68C0235B021A4080231B02CD
:103630009A4216D1714B1B680222134005D07B6859
:10364000DB68012B01D0012399E26C4B1B68F82247
:10365000934319007B681B69DA00684B0A431A60C0
:1036600041E07B68DB68002B24D0644B1A68634B15
:1036700001210A431A60FDF731FD03003B6108E0B8
:10368000FDF72CFD02003B69D31A022B01D903235D
:1036900075E25A4B1B6802221340F1D0574B1B684E
:1036A000F822934319007B681B69DA00534B0A43E5
:1036B0001A6018E0514B1A68504B01218A431A6076
:1036C000FDF70CFD03003B6108E0FDF707FD02007C
:1036D0003B69D31A022B01D9032350E2474B1B68E5
:1036E00002221340F1D17B681B680822134036D0B8
:1036F0007B68DB69002B19D0404B5A6A3F4B012194
:103700000A435A62FDF7EAFC03003B6108E0FDF75B
:10371000E5FC02003B69D31A022B01D903232EE2F8
:10372000364B5B6A02221340F1D018E0334B5A6AE1
:10373000324B01218A435A62FDF7D0FC03003B6102
:1037400008E0FDF7CBFC02003B69D31A022B01D93C
:10375000032314E2294B5B6A02221340F1D17B68F8
:103760001B680422134000D1B6E01723FB18002287
:103770001A70224BDA6980235B05134011D11F4B6D
:10378000DA691E4B802149050A43DA611B4BDA696D
:1037900080235B051340FB60FB681723FB180122A5
:1037A0001A70194B1A6880235B0013401AD1164B0C
:1037B0001A68154B802149000A431A60FDF78EFCF8
:1037C00003003B6108E0FDF789FC02003B69D31A66
:1037D000642B01D90323D2E10B4B1A6880235B00D1
:1037E0001340F0D07B689B68012B0FD1034B1A6A02
:1037F000024B01210A431A6236E0C0460010024023
:10380000FFFFFEFFFFFFFBFF007000407B689B682F
:10381000002B0CD1CA4B1A6AC94B01218A431A6288
:10382000C74B1A6AC64B04218A431A621CE07B68A4
:103830009B68052B0CD1C24B1A6AC14B04210A4369
:103840001A62BF4B1A6ABE4B01210A431A620BE08F
:10385000BB4B1A6ABA4B01218A431A62B84B1A6AE7
:10386000B74B04218A431A627B689B68002B14D0F3
:10387000FDF734FC03003B6109E0FDF72FFC02007B
:103880003B69D31AAF4A934201D9032377E1AC4B8A
:103890001B6A02221340F0D013E0FDF71FFC030067
:1038A0003B6109E0FDF71AFC02003B69D31AA54A07
:1038B000934201D9032362E1A14B1B6A0222134008
:1038C000F0D11723FB181B78012B05D19C4BDA692B
:1038D0009B4B9D490A40DA617B681B6810221340AC
:1038E00063D07B685B69012B2AD1954B5A6B944B53
:1038F00004210A435A63924B5A6B914B01210A43AC
:103900005A63FDF7EBFB03003B6108E0FDF7E6FBC4
:1039100002003B69D31A022B01D903232FE1884B04
:103920005B6B02221340F1D0854B5B6BF822934313
:1039300019007B689B69DA00814B0A435A6334E0C3
:103940007B685B69053311D17D4B5A6B7C4B04213D
:103950008A435A637A4B5B6BF822934319007B6866
:103960009B69DA00764B0A435A631EE0744B5A6B2C
:10397000734B04210A435A63714B5A6B704B0121FC
:103980008A435A63FDF7AAFB03003B6108E0FDF799
:10399000A5FB02003B69D31A022B01D90323EEE0F9
:1039A000674B5B6B02221340F1D17B681B682022BE
:1039B00013405CD0624B5B680C2213400C2B0ED082
:1039C0005F4B5B680C221340082B14D15C4B5A6888
:1039D000C0235B021A40C0235B029A420BD1584BB2
:1039E0005A6B80235B02134040D07B681B6A012B1B
:1039F0003CD00123C3E07B681B6A002B1BD0504BDB
:103A00005A6B4F4B802149020A435A63FDF766FB0C
:103A100003003B6108E0FDF761FB02003B69D31A3C
:103A2000022B01D90323AAE0454B5A6B80235B028A
:103A30001340F0D01BE0424B5A6B414B43490A40C4
:103A40005A63FDF74BFB03003B6108E0FDF746FBC3
:103A500002003B69D31A022B01D903238FE0384BB4
:103A60005A6B80235B021340F0D100E0C0467B68B4
:103A70005B6A002B00D181E0314B5B680C22134064
:103A8000082B00D178E07B685B6A022B4CD12C4B71
:103A90001A682B4B2E490A401A60FDF71FFB0300E2
:103AA0003B6108E0FDF71AFB02003B69D31A022BC9
:103AB00001D9032363E0224B1A6880239B0413403F
:103AC000F0D11F4BDB6A0F22934319007B681A6BFE
:103AD0001B4B0A43DA621A4B5B681E4A13401900FB
:103AE0007B68DA6A7B689B6A1A43154B0A435A6003
:103AF000134B1A68124B802149040A431A60FDF7E0
:103B0000EDFA03003B6108E0FDF7E8FA02003B69CB
:103B1000D31A022B01D9032331E0094B1A68802301
:103B20009B041340F0D029E0054B1A68044B084968
:103B30000A401A60FDF7D2FA03003B6115E0C04667
:103B40000010024088130000FFFFFFEFFFFFFEFFA1
:103B5000FFFFFFFEFF7FC2FFFDF7C0FA02003B69D7
:103B6000D31A022B01D9032309E0074B1A688023DB
:103B70009B041340F0D101E0012300E00023180072
:103B8000BD4606B080BDC0460010024080B584B07E
:103B900000AF786039600023FB607B4B1B6801221B
:103BA00013403A689A4211D9774B1B68012293431C
:103BB0001900754B3A680A431A60734B1B6801225F
:103BC00013403A689A4201D00123D8E07B681B6811
:103BD0000222134009D06D4B5B68F0229343190019
:103BE0007B689A68694B0A435A607B681B680122AC
:103BF000134000D189E07B685B68012B07D1634BE0
:103C00001A6880239B02134020D10123B7E07B6810
:103C10005B68022B07D15D4B1A6880239B0413401D
:103C200014D10123ABE07B685B68032B07D1574BB2
:103C30005A6B80235B02134008D101239FE0534B52
:103C40001B680222134001D1012398E04F4B5B68AF
:103C50000322934319007B685A684C4B0A435A600D
:103C6000FDF73CFA0300FB607B685B68012B11D118
:103C700009E0FDF733FA0200FB68D31A444A934285
:103C800001D903237BE0414B5B680C221340042BDA
:103C9000EFD13AE07B685B68022B11D109E0FDF7B8
:103CA0001DFA0200FB68D31A394A934201D9032353
:103CB00065E0364B5B680C221340082BEFD124E003
:103CC0007B685B68032B1BD109E0FDF707FA020054
:103CD000FB68D31A2E4A934201D903234FE02B4BA2
:103CE0005B680C2213400C2BEFD10EE0FDF7F6F9C8
:103CF0000200FB68D31A264A934201D903233EE00F
:103D0000224B5B680C221340F0D11F4B1B68012231
:103D100013403A689A4211D21B4B1B68012293430D
:103D20001900194B3A680A431A60174B1B680122A5
:103D300013403A689A4201D0012320E07B681B6857
:103D40000422134009D0114B5B68124A134019003A
:103D50007B68DA680D4B0A435A6000F021F80100D5
:103D60000A4B5B681B090F2213400B4AD35C0A0005
:103D7000DA400A4B1A600020FDF788F9002318008A
:103D8000BD4604B080BDC046002002400010024085
:103D900088130000FFF8FFFF6848000804000020B7
:103DA00090B58FB000AF1423FB18374A13CA13C362
:103DB00012681A603B1D354A13CA13C312681A6091
:103DC0000023FB620023BB6200237B6300237B6232
:103DD00000233B632E4B5B68FB62FB6A0C221340A3
:103DE000082B06D00C2B43D0042B44D1294B3B632A
:103DF00044E0FB6A9B0C0F2213401422BA18D35CD8
:103E00007B62234BDB6A0F2213403A1DD35CBB62FB
:103E1000FA6AC0235B021A4080235B029A4209D1EE
:103E2000B96A1C48FCF778F903001A007B6A53430F
:103E30007B631AE0FA6AC0235B021A40C0235B026C
:103E40009A4209D1B96A1448FCF766F903001A00CE
:103E50007B6A53437B6308E0B96A0E48FCF75CF960
:103E600003001A007B6A53437B637B6B3B6305E073
:103E7000094B3B6302E0074B3B63C0463B6B1800BA
:103E8000BD460FB090BDC0464848000858480008DD
:103E90000010024000127A00006CDC0280B500AF16
:103EA000024B1B681800BD4680BDC04604000020C0
:103EB00080B500AFFFF7F2FF0100064B5B681B0AFD
:103EC00007221340044AD35CD9400B001800BD46BA
:103ED00080BDC04600100240784800080D48854665
:103EE0000D480E490E4A002302E0D458C450043352
:103EF000C4188C42F9D30B4A0B4C002301E0136029
:103F00000432A242FBD3FCF727FF00F011F8FCF7C4
:103F100059FAFEE700400020000000206C0000205D
:103F2000BC4800087000002010080020FEE70000D8
:103F300070B500260C4D0D4C641BA410A64209D18F
:103F4000002600F049FC0A4D0A4C641BA410A6424E
:103F500005D170BDB300EB5898470136EEE7B300CA
:103F6000EB5898470136F2E7B4480008B448000817
:103F7000B4480008B848000803001218934200D162
:103F8000704719700133F9E70CB430B5164B9DB08A
:103F90000C1E1D6808DA8B2301202B6040421DB0E7
:103FA00030BC08BC02B01847822302A99B008B8159
:103FB0000023029008619C4200D0631E8B604B611D
:103FC00001235B42CB81209A21AB2800019300F0B2
:103FD0006FF8431C01DA8B232B60002CDFD0002309
:103FE000029A1370DBE7C04608000020F0B58E6827
:103FF00085B007000C00039201939E423CD89023A9
:104000008A89DB001A4234D00325096923685B1AC8
:104010000293636902985D43EB0F5D19019B6D107C
:1040200001331B18AB4200D91D00530532D52900BE
:10403000380000F023FB061E09D10C233B6040230F
:104040000120A28940421343A38105B0F0BD029A2A
:10405000216900F0ACFAA389144A1A408023134363
:10406000A381029B2661F61826606561019EED1A08
:10407000A560019B9E4200D9019E320003992068F1
:1040800000F09EFAA36800209B1BA36023689E1982
:104090002660DAE72A00380000F04EFB061EE0D169
:1040A0002169380000F0A0FAC7E7C0467FFBFFFF98
:1040B000F0B5A1B003901D008B890F0016001B0600
:1040C00011D50B69002B0ED1402100F0D7FA3860D2
:1040D0003861002805D10C23039A0138136021B000
:1040E000F0BD40237B61002308AC6361203363761D
:1040F0001033A376079535002B78002B01D0252BA4
:1041000046D1AB1B05930CD0320039000398FFF762
:104110006DFF431C00D1AEE06269059B9446634489
:1041200063612B78002B00D1A5E0012200235242CD
:10413000626004A9543252186E1C2360E360A360CD
:104140001370A36531780522534800F025FA751CD9
:1041500000281FD12268D30604D5532304A95B1875
:1041600020211970130704D5532304A95B182B21B0
:10417000197033782A2B16D0350000210A20E36805
:104180002A786E1C303A092A4ED9002918D010E03E
:104190000135B1E7404B2268C01A01238340134325
:1041A00023602E00CEE7079B191D1B680791002B8B
:1041B00001DB0B9304E05B42E360022313432360C3
:1041C0002B782E2B0AD16B782A2B35D1079B023501
:1041D0001A1D1B680792002B2BDB09932F4E2978A1
:1041E0000322300000F0D8F9002806D04023801BBD
:1041F000834022680135134323602978062228482A
:104200006E1C217600F0C8F900283CD0254B002B0D
:1042100025D10722079B073393430833079363692C
:10422000049A9B18636166E7434301219B1835009C
:10423000A6E701235B42D0E700230A201A000135DC
:10424000636029786E1C3039092903D9002BC5D049
:104250000992C3E74243012352183500F1E707AB47
:1042600000933A00104B2100039800E000BF049037
:10427000049B0133D3D1BB890D985B0600D42EE794
:10428000012040422BE707AB00933A00064B210088
:10429000039800F079F8EAE78048000886480008AB
:1042A0008A48000800000000ED3F0008F7B515003F
:1042B00001938A680B6900900C00934200DA1300A6
:1042C00022002B6043321278002A01D001332B6088
:1042D00023689B0602D52B6802332B6006272368D0
:1042E0001F4027D0230043331B785A1E9341226876
:1042F000920630D42200019943320098089EB047BC
:10430000431C25D0062320682A68E1680340002565
:10431000042B03D18D1AEB43DB171D40A3682269E0
:10432000934201DD9B1AED180027BD4220D10020E9
:1043300010E00137E3682A689B1ABB42D2DD2200F5
:104340000123193201990098089EB047431CF0D10F
:1043500001204042FEBD3020E118433108702100A9
:104360005A1C45310978A218433202331170C1E753
:10437000220001231A3201990098089EB047431C7D
:10438000E6D00137D1E70000F0B589B004920A0009
:1043900043320593039002920A7E0C000E9B6E2A14
:1043A00000D186E01FD8632A33D008D8002A00D174
:1043B0008CE0582A4DD0250042352A7030E0642A1E
:1043C00001D0692AF7D1196825680A1D280629D560
:1043D00008681A60002803DA2D23029A40421370FD
:1043E0006B4E0A274FE0732A74D008D86F2A1FD06B
:1043F000702AE0D1202209680A43226003E0752A6E
:1044000016D0782AD7D12200782145321170614E1A
:1044100022E025001A684235111D196013682B70BF
:10442000012365E008681A606906D3D500B2D1E7B8
:1044300019682568081D186008682E0605D5544EB1
:1044400008276F2A1BD00A2719E06D06F7D580B21E
:10445000F5E745314E4E0A7018682268011D006864
:104460001960150621D5D30702D520231A432260EF
:104470001027002803D1202322689A4322602300BA
:10448000002243331A706368A360002B58DB0422B8
:10449000216891432160002854D1029D002B5AD0FD
:1044A0002500337842352B7055E05506DBD580B2B8
:1044B000D9E71A680D68101D4969186013682E063F
:1044C00001D5196002E06D06FBD519800023029D1D
:1044D00023614FE01A68111D196015680021626898
:1044E000280000F059F8002801D0401B6060636884
:1044F00023610023029A13703CE023692A00049987
:104500000398059DA847431C3ED023689B0715D4FC
:10451000079BE068984239DA180037E0220001234F
:10452000193204990398059EB047431C2CD00135DD
:10453000E368079A9B1AAB42F0DCE9E70025F7E74E
:104540000028ADD0029D3900FBF76CFE735C013D85
:104550002B700028F7D1082F09D12368DB0706D577
:1045600063682269934202DC3023013D2B70029B79
:104570005B1B2361059B07AA00932100049B039802
:10458000FFF794FE431CB8D10120404209B0F0BDB2
:1045900091480008A2480008C9B28218904201D18F
:1045A0000020704703788B42FBD00130F6E70023F0
:1045B00010B59A4200D110BDCC5CC4540133F8E769
:1045C00010B5884202D98B18984203D3002307E024
:1045D0008B5C8354013AFBD210BDCC5CC4540133D4
:1045E0009A42FAD1F8E7000070B50500002910D012
:1045F0000C1F2368002B00DAE418280000F0D4F820
:104600001D4A1368002B05D163601460280000F078
:10461000CCF870BDA34209D9216860188342F3D158
:1046200018685B6841182160EEE713005A68002A99
:1046300001D0A242F9D919685818A0420BD12068BC
:104640000918581819608242E0D110685268411860
:1046500019605A60DAE7A04202D90C232B60D5E733
:1046600021686018824203D11068526841182160A5
:1046700062605C60CAE7C046BC060020032370B5D8
:10468000CD1C9D43083506000C2D1ED20C25A942D9
:104690001DD8300000F088F8254A14682100002950
:1046A00019D1244C2368002B03D1300000F06AF8A4
:1046B00020602900300000F065F8431C2BD10C234A
:1046C0003000336000F071F803E0002DDFDA0C23D6
:1046D0003360002070BD0B685B1B19D40B2B03D912
:1046E0000B60CC18256003E04B688C420DD1136041
:1046F000300000F05AF8200007220B30231D9043B1
:10470000C31AE7D05A42E250E4E763600C00EFE7D7
:104710000C004968C3E70323C41C9C43A042E1D0BA
:10472000211A300000F02EF8431CDBD1C7E7C04649
:10473000BC060020C0060020F8B507000D001600DA
:10474000002905D11100FFF799FF04002000F8BDF2
:10475000002A03D1FFF748FF3400F7E700F026F8FE
:104760002C00B042F2D231003800FFF787FF041E60
:10477000ECD029003200FFF71AFF29003800FFF7BC
:1047800033FFE3E7002370B5064C05000800236003
:1047900000F014F8431C03D12368002B00D02B60D9
:1047A00070BDC0460C080020704770470B1F1B6887
:1047B000181F002B01DA0B58C0187047044A136801
:1047C000002B00D1034B1818106018007047C0462A
:1047D000C406002010080020F8B5C046F8BC08BC8C
:1047E0009E467047F8B5C046F8BC08BC9E46704768
:1047F000543A2025646F430D0A483A202564252544
:104800000D0A0D0A000000007372632F6D63752E90
:1048100063000000637562652F5372632F74696DC6
:104820002E630000637562652F5372632F75736189
:1048300072742E6300000000637562652F5372630B
:104840002F6164632E630000020304050607080954
:104850000A0B0C0D0E0F10100102030405060708C9
:10486000090A0B0C0D0E0F100000000000000000E4
:104870000102030406070809000000000102030406
:10488000232D302B2000686C4C0065666745464739
:1048900000303132333435363738394142434445BC
:1048A000460030313233343536373839616263642B
:0448B0006566000039
:0448B400E90000080F
:0448B800C100000833
:1048BC0030F8FFFF00127A000C000020000000000E
:1048CC0000000000000000000000000000000000DC
:1048DC0000000000000000000000000000000000CC
:1048EC0000000000000000000000000000000000BC
:1048FC0000000000000000000000000000000000AC
:10490C00000000000000000000000000000000009B
:0C491C000000000000000000000000008F
:0400000508003EDDD4
:00000001FF
