:020000040800F2
:1000000000400020151F0008710600087306000854
:1000100000000000000000000000000000000000E0
:10002000000000000000000000000000750600084D
:1000300000000000000000007706000879060008B4
:10004000651F0008651F0008651F0008651F000880
:10005000651F0008651F0008651F00088506000869
:10006000651F000891060008651F0008651F00084D
:10007000A1060008651F0008651F0008651F00082D
:10008000651F0008651F0008651F0008651F000840
:10009000651F0008651F0008651F0008651F000830
:1000A000651F0008651F0008651F0008651F000820
:1000B000651F0008651F0008651F0008651F000810
:1000C00010B5064C2378002B07D1054B002B02D02E
:1000D000044800E000BF0123237010BD040000208D
:1000E00000000000C01F0008044B10B5002B03D017
:1000F0000349044800E000BF10BDC04600000000F6
:1001000008000020C01F0008002243088B4274D35F
:1001100003098B425FD3030A8B4244D3030B8B4208
:1001200028D3030C8B420DD3FF22090212BA030C11
:100130008B4202D31212090265D0030B8B4219D3F2
:1001400000E0090AC30B8B4201D3CB03C01A524112
:10015000830B8B4201D38B03C01A5241430B8B425A
:1001600001D34B03C01A5241030B8B4201D30B0343
:10017000C01A5241C30A8B4201D3CB02C01A52416A
:10018000830A8B4201D38B02C01A5241430A8B422D
:1001900001D34B02C01A5241030A8B4201D30B0216
:1001A000C01A5241CDD2C3098B4201D3CB01C01A30
:1001B000524183098B4201D38B01C01A524143093A
:1001C0008B4201D34B01C01A524103098B4201D328
:1001D0000B01C01A5241C3088B4201D3CB00C01A95
:1001E000524183088B4201D38B00C01A524143080D
:1001F0008B4201D34B00C01A5241411A00D2014632
:10020000524110467047FFE701B5002000F006F8A4
:1002100002BDC0460029F7D076E770477047C04658
:1002200010B500F045FA00F08BFA802292000249E6
:10023000024800F08FFE10BD20000020B008002012
:1002400010B584B00822002102A801F0B1FE002000
:1002500010E04200D218920014495258990002ACA2
:100260000C590194A446624402AC0A510133012B9B
:10027000EFDD0130FF2801DC0023F8E7002307E071
:10028000990002AA8A580192120A02A80A50013360
:10029000012BF5DD002305E09A0002A9505804491E
:1002A00050500133012BF7DD04B010BD20000020B9
:1002B0002008002010B590202021C00501F0D2F8C0
:1002C00010BD000010B500F047F8FFF7F3FF02483B
:1002D00000F004F8F9E7C046DC05000010B500F0B6
:1002E000F5FA10BDFEE7000000B593B0202305939A
:1002F0001F3B0D9300230E9305A801F07BFA002805
:100300001FD107230193043B02930023039304931B
:10031000012101A801F036FD002816D101F0F4FDFD
:10032000FA218900FFF7F0FE01F0E8F8042001F05F
:1003300001F9012000220021404201F0A5F813B08C
:1003400000BD40210348FFF7CDFF4D210148FFF7D5
:10035000C9FFC046F81F000810B500F099FAFFF772
:10036000C3FF00F029F9FFF75BFF00F001F810BDB3
:1003700010B500F08DF80B4C0021200000F0B0FC0F
:100380000421200000F0ACFC8021074C0122C900B0
:10039000200001F061F800221021200001F05CF83B
:1003A00010BDC0462C08002000040048002802D0E0
:1003B000012804D07047044B1B685963FAE7024BCD
:1003C0001B689963F6E7C0462C08002010B50400AE
:1003D00080239B01984209D080239B019C420FD02F
:1003E0000C4A137801214B40137010BD094B1B7848
:1003F000002BF1D1FA2189000020FFF7D7FFEBE7AE
:10040000044B1B78002BEBD000210020FFF7CEFF20
:10041000E6E7C0462808002082B00268074B9A42EF
:1004200001D002B07047064A916980200001014363
:100430009161936903400193019BF2E7002C014015
:100440000010024070B586B00268104B9A4201D08D
:1004500006B070BD80235B00019302240294002546
:100460000395049505949026F60501A9300000F047
:1004700027FF80239B000193029403940495059425
:1004800001A9300000F01CFFE2E7C046002C01404B
:1004900000B591B03048314B03602F2343600023F7
:1004A0008360FA229200C26003614361836100F0BD
:1004B00037FB002836D100230E930F930EA9264850
:1004C00001F04DF8002832D16023079300230893F0
:1004D00009930A930B930C930D93002207A91E48CE
:1004E00000F07CFB002827D104230B93042207A9EA
:1004F000194800F073FB002823D1002300930193D7
:100500000293039304938022920105920693694615
:10051000114801F04BF8002818D10F48FFF792FF5F
:1005200011B000BD41210E48FFF7DCFEC3E74821B2
:100530000B48FFF7D7FEC7E754210948FFF7D2FE63
:10054000D2E75A210648FFF7CDFED6E766210448D8
:10055000FFF7C8FEE1E7C0462C080020002C014050
:100560000420000800B583B0124B996901221143A1
:10057000996199690A400092009ADA6980214905D7
:100580000A43DA61DB690B400193019B05200022DD
:100590000021404200F078FF02200022002140426A
:1005A00000F072FF012000220021404200F06CFFA9
:1005B00003B000BD00100240F0B589B0284B596966
:1005C00080200003014359615A6902400092009A59
:1005D000596980208002014359615A6902400192A1
:1005E000019A5A698021C9020A435A615B690B402A
:1005F0000293029B002220219020C00500F02CFFD6
:100600008227FF0000223900164800F025FF8023D2
:100610009B010393144B04930024059403A91348EE
:1006200000F04EFE20230393012504950226059633
:10063000069403A99020C00500F042FE039704959C
:100640000596069403A9074800F03AFE002200210F
:10065000072000F019FF072000F046FF09B0F0BDA9
:10066000001002400004004800001110000800487B
:100670007047FEE77047704710B500F019F900F0B9
:100680006AFF10BD10B58020800100F0EFFE10BDA4
:1006900010B5024801F059F810BDC0466C080020A2
:1006A00010B5024800F0F8FC10BDC046B0080020AC
:1006B00000B583B0094A5169012319435161526958
:1006C00013400193019B00220021092000F0DCFE71
:1006D000092000F009FF03B000BDC0460010024031
:1006E000114B1A6801210A431A605A680F480240E8
:1006F0005A601A680E4802401A601A680D48024093
:100700001A605A680C4802405A60DA6A0F20824325
:10071000DA621A6B094802401A635A6B8A435A63B9
:1007200000229A607047C046001002400CB8FF08D3
:10073000FFFFF6FEFFFFFBFFFFFFC0FF2CFEFCFFED
:1007400000B585B02048214B036080231B06436021
:1007500000238360C360012202610421416183613F
:10076000C36102624362C221FF318162C3620263DC
:10077000436300F031FB002816D10023019380234E
:100780005B0102930223039301A90F4800F0F2FCDE
:1007900000280ED10123019301A90B4800F0EAFCC7
:1007A00000280BD105B000BD4C210948FFF79AFD88
:1007B000E3E756210648FFF795FDEBE75E21044885
:1007C000FFF790FDEEE7C046B0080020002401408E
:1007D0002420000870B586B004001F4B02689A42BE
:1007E00001D006B070BD1D4B9A698025AD002A432B
:1007F0009A619B692B400093009B03230193029312
:1008000000260396902001A9C00500F059FD144868
:10081000144B0360466086608023C36005618023BB
:100820001B0143612023836180239B01C36100F08E
:1008300025FF00280BD10A4BE3635C6200220021F4
:100840000C2000F021FE0C2000F04EFEC9E78421B0
:100850000548FFF747FDEEE7002401400010024085
:100860006C080020080002402420000810B5040095
:1008700001F04AFBFA218900FFF746FC00F03EFE3A
:10088000012000222100404200F0FEFD002010BDAA
:1008900010B5064A136810210B4313600020FFF7C0
:1008A000E5FFFFF75FFE002010BDC04600200240BC
:1008B000024A1368013313607047C046FC080020E9
:1008C000014B18687047C046FC08002030B583B063
:1008D0000190FFF7F5FF0500019C631C00D0013477
:1008E000FFF7EEFF401BA042FAD303B030BD00007B
:1008F00030B5036A012293430362036A4268846944
:100900007325AC430D682C430225AB438D682B4304
:10091000144DA84208D0144DA84205D0134DA8424A
:1009200002D0134DA84205D10825AB43CD682B4317
:100930000425AB430B4DA84208D00B4DA84205D06F
:100940000A4DA84202D00A4DA84205D1094D2A40BD
:100950004D692A438D692A43426084614A68426333
:10096000036230BD002C01400040014000440140C2
:1009700000480140FFFCFFFF70B5036A194A1340AD
:100980000362036A4268C4697325AC430E68264358
:10099000154C23408C6824022343144CA04219D0E8
:1009A000124CA04208D0124CA04205D0114CA042DB
:1009B00002D0114CA04207D1104C14404A691201D8
:1009C00022438C6925012A434260C6614A68C2639A
:1009D000036270BD0A4C1C40CB681B022343094CC8
:1009E0002340DDE7FFFEFFFFFFFDFFFF002C01407E
:1009F000004001400044014000480140FFCFFFFF9C
:100A0000FFF7FFFFFFFBFFFF30B5036A134A1340F8
:100A10000362026A4368C469114D2C400D682D02BF
:100A20002C43104D15408A6812032A430E4DA842EC
:100A300008D00E4DA84205D00D4DA84202D00D4D54
:100A4000A84204D10C4D2B404D69AD012B434360AE
:100A5000C4614B680364026230BDC046FFEFFFFF14
:100A6000FF8CFFFFFFDFFFFF002C01400040014033
:100A70000044014000480140FFBFFFFF0368214AD6
:100A8000904206D08022D205904202D01E4A904267
:100A900003D1702293434A6813431A4A904212D0FA
:100AA0008022D20590420ED0174A90420BD0174AAE
:100AB000904208D0164A904205D0164A904202D081
:100AC000154A904203D1154A1340CA681343802245
:100AD00093434A69134303608B68C3620B68836264
:100AE000084B984208D00A4B984205D0094B9842CF
:100AF00002D0094B984201D10B6903630123436182
:100B00007047C046002C0140000400400020004017
:100B1000004001400044014000480140FFFCFFFF4D
:100B200070B5041E14D03D23C35C002B0AD03D25B4
:100B300002236355211D2068FFF7A0FF01236355A1
:100B4000002070BD3C330022C254FFF765FCEEE785
:100B50000120F6E770B5036A102293430362036A2B
:100B600042688469174D2C400D682D0225432024CE
:100B7000A3438C6824012343134CA04219D0124C88
:100B8000A04208D0114CA04205D0114CA04202D086
:100B9000104CA04207D1104C14404A6992002243E5
:100BA0008C69A6003243426085614A6882630362B1
:100BB00070BD8024A3431C00CB681B012343402449
:100BC000A343DCE7FF8CFFFF002C01400040014005
:100BD0000044014000480140FFF3FFFF70B50400EE
:100BE0000D003C23C35C012B69D03C230121C1547F
:100BF00001330131C154042A37D019D9082A4AD007
:100C00000C2A2AD129000068FFF7FEFE2268D1696C
:100C100080231B010B43D3612268D36929490B4010
:100C2000D3612168CB692A6912021343CB6114E0B6
:100C3000002A12D129000068FFF75AFE2268936942
:100C400008210B4393612268936904398B439361B4
:100C50002268936929690B4393613D230122E25481
:100C6000013B0022E254002070BD29000068FFF71C
:100C700071FF2268916980231B010B4393612268F5
:100C8000936910490B40936121688B692A691202AC
:100C900013438B61E1E729000068FFF76DFE2268CE
:100CA000D36908210B43D3612268D36904398B438C
:100CB000D3612268D36929690B43D361CDE7022050
:100CC000D2E7C046FFFBFFFF10B501248C40036A4A
:100CD000A3430362036A8A401A43026210BD000004
:100CE00010B5040001220068FFF7EEFF23680C4AEC
:100CF000934208D00B4A934205D00B4A934202D04C
:100D00000A4A934204D1596C802212020A435A645F
:100D10002268136801210B431360002010BDC046F8
:100D2000002C0140004001400044014000480140C7
:100D300030B583B00400002301930368996803224F
:100D40000A40012A0ED09968204A114212D19A68AD
:100D500001210A439A601E4B18681E49FFF7D4F917
:100D6000019015E01A68D2072DD4DA681204EAD58A
:100D7000002008E0636C102213436364A36C0F3AF5
:100D80001343A364012003B030BD019B013B0193D9
:100D9000019B002BF9D1FFF793FD050023681B6829
:100DA000DB070ED4FFF78CFD401B0228F6D9636CDD
:100DB000102213436364A36C0F3A1343A36401200E
:100DC000E1E70020DFE70020DDE7C04617000080F4
:100DD0000000002040420F0070B5041E00D1B0E0BA
:100DE000436C002B7DD0636CDB0600D5A3E021684B
:100DF0008B6804221A4000D09DE0636C5248034087
:100E00000630FF3003436364886803230340012BEB
:100E10006DD0CB6818208343A0680343CB60216862
:100E20000B699B009B08606803430B612168CB68DA
:100E300046480340CB60A3699B03E169C9030B43A8
:100E4000216A48030343606B012857D0802040018A
:100E50000343E06803432069022851D01343226B07
:100E600052001343626A012A4CD0A26AC221FF31A8
:100E70008A4202D0E16A0A4313432168CA681A43CE
:100E8000CA60A26B802149058A420DD0012A0BD08D
:100E9000022A09D0032A07D0042A05D0052A03D044
:100EA000062A01D0072A0AD1206841690722914306
:100EB000416120684169A56B2A400A43426122686A
:100EC000D26823490A409A422BD0636C1222934382
:100ED000023A13436364A36C0F3A1343A3640120E3
:100EE0002EE0836440228354FFF774FC7BE70B6899
:100EF000DB079BD4CB681B0498D48AE71000A7E7D4
:100F00000422ABE7002903D1802252021343ACE74D
:100F1000626C20210A436264A26C1F390A43A264F6
:100F2000A3E70023A364636C03229343023A1343B1
:100F30006364002004E0636C1022134363640120A7
:100F400070BD0120FCE7C046FDFEFFFF1902FEFF59
:100F5000E7FF3F83F8B504000E00170003689B68A5
:100F60005B073ED44023C35C012B3CD040230122CD
:100F7000C254C369012B32D0FFF7DAFE051E2CD113
:100F8000636C1A4A1A4080235B0013436364002396
:100F9000A3644022A354E36B154A9A62E36B154A9B
:100FA000DA62E36B144A1A6323681C221A6022680F
:100FB000536810210B4353602268D3680F390B43E9
:100FC000D360216840313B003200E06B00F082FBCF
:100FD0002268936804210B4393602800F8BD002524
:100FE000CEE70225F9E70225F7E7C046FEF0FFFF4E
:100FF000FD0F00086F1000087D10000810B5436A4F
:101000005A6C5021114203D0DB6B1B6B984710BD0B
:10101000596C802292000A435A641A68D068C02131
:101020000901084213D1196A002910D11168090772
:101030000DD5916849070ED451680C208143516049
:101040005A6C09490A400431FF310A435A641800B6
:10105000FFF7F6F8DBE75A6C20210A435A649A6CD2
:101060001F390A439A64F2E7FEFEFFFF704710B58E
:10107000406AFFF7FBFF10BD7047704710B5406A2C
:10108000436C402213434364836C3C3A13438364B0
:10109000FFF7F3FF10BD000010B5040003681A68E5
:1010A000520702D55A68520705D41A68120729D583
:1010B0005A68120726D5626CD20604D4616C80226D
:1010C00092000A436264D968C0221201114213D10E
:1010D000226A002A10D11A6812070DD59A685207A1
:1010E00031D45A680C218A435A60636C204A1340F9
:1010F0000432FF32134363642000FFF7A1F8236832
:101100000C221A6023681A68120602D55B681B0657
:1011100022D423681A68D20614D55A68D20611D58B
:10112000626B012A02D0DA68D20708D5A26C0221CC
:101130000A43A26410221A602000FFF79EFF236872
:1011400010221A6010BD636C202213436364A36CE9
:101150001F3A1343A364CFE7626C80235B021343FF
:1011600063642000FFF788FF236880221A60D0E7BD
:10117000FEFEFFFF30B583B004000023019340332F
:10118000C35C012B00D18AE040230122C2540368D2
:101190009A68520775D4434A4868904256D09A6A72
:1011A00001200D68A84002439A62A36B8022520579
:1011B00093421ED0012B1CD0022B1AD0032B18D027
:1011C000042B16D0052B14D0062B12D0072B10D0D1
:1011D00022685069072303408868984209D0506903
:1011E000072398435061206842698D682B40134360
:1011F00043610B681A00103A022A4CD82A4A126836
:10120000102B0ED0112B09D080235B041343264AE8
:1012100013600B68102B07D0002037E08023DB031E
:10122000F4E780231B04F1E7204B18682049FEF700
:101230006BFF830018184300019302E0019B013B00
:101240000193019B002BF9D100201FE09A6A012035
:101250000D68A84082439A620B681A00103A022A6D
:101260001BD8114A1268102B09D0112B05D0114B35
:1012700013400D4A1360002008E00F4BF8E70F4BB6
:10128000F6E7436C202213434364012040230022ED
:10129000E25403B030BD0020F8E70020F6E702205A
:1012A000F7E7C046011000000827014000000020B9
:1012B00040420F00FFFFFFFEFFFFBFFFFFFF7FFF6A
:1012C000F0B5C64600B582B0002338E0042600E041
:1012D0000026AE4035003D430234A400574EA551D0
:1012E000574C25684246D4432E0026404A68D20314
:1012F00002D5424615432E00514D2E606D682E00DA
:1013000026404A68920302D5424615432E004C4DB2
:101310006E60AD682E0026404A68D20202D5424671
:1013200015432E00464DAE60ED682C404A6892028F
:1013300002D542462A431400414AD46001330A6868
:101340001400DC4076D001259D402A409046F5D01F
:101350004C68022C01D0122C0ED1DC080834A400F9
:10136000275807261E40B6000F22B24097430A694D
:10137000B24016003E43265002685F000324260058
:10138000BE40F643324094464A681440BC40624630
:10139000144304604C68621E012A03D9112C01D049
:1013A000122C10D184683440A446CC68BC406246FC
:1013B000144384604468AC434A681209012515400F
:1013C0009D4025434560C46826408C68BC4034433A
:1013D000C4604A68D200B1D51A4DAE6901242643D3
:1013E000AE61AD692C400194019C9C08A51CAD0028
:1013F000124EAF5903261E40B5000F26AE40B7432C
:101400009026F605B04200D162E70F4EB0420BD0F5
:101410000E4EB0420AD00E4EB04209D00D4EB04230
:1014200000D153E7052654E7012652E7022650E78C
:1014300003264EE702B004BC9046F0BD0000014018
:101440000004014000100240000400480008004869
:10145000000C004800100048002A01D1816270474A
:101460008161FCE7436959404161704710B5054B04
:101470005B69184200D110BD024B5861FEF7A6FF10
:10148000F9E7C0460004014070B5002811DB84086C
:10149000134DC034A400625903231840C000FC332C
:1014A0001E008640B24389010B40834013436351C1
:1014B00070BDC0B20F220240083A92080632920074
:1014C000084BD3185D6803242040C000FF2214009D
:1014D0008440A54389010A4082402A435A60E7E7D5
:1014E00000E100E000ED00E01F2318401E3B8340B8
:1014F000014A13607047C04600E100E001380A4B22
:1015000098420FD8094A50600948036A1B021B0A17
:10151000C02109060B430362002393600733136065
:10152000002070470120FCE7FFFFFF0010E000E013
:1015300000ED00E0042805D0054A136804218B4320
:1015400013607047024A136804210B431360F8E7E5
:1015500010E000E0704710B5FFF7FCFF10BDF0B5DC
:101560003C23C35C012B1ED03C22012585543D2425
:1015700002230355066873687027BB4373600668CF
:1015800073680F683B4373600668B3688027BB438A
:10159000B3600668B36849680B43B3600555002320
:1015A00083540020F0BD0220FCE7000070B53C230E
:1015B000C35C012B28D03C22012585543D24022305
:1015C0000355124BCE6833408E683343104E334080
:1015D0004E6833430F4E33400E6833430E4E334054
:1015E0000E6933430D4E33404E6933430C4E334046
:1015F00089690B430B4E33400B4301684B6405551F
:1016000000238354002070BD0220FCE7FFFCFFFF95
:10161000FFFBFFFFFFF7FFFFFFEFFFFFFFDFFFFF16
:10162000FFBFFFFFFF7FFFFF70B5C56B0124066C96
:10163000B4406C60046863604368102B04D0036896
:1016400099600368DA6070BD03689A600368D960C6
:10165000F9E7000010B504000368064A94466344A5
:1016600018001421FEF750FD80002064024BE36354
:1016700010BDC046F8FFFDBF0000024070B5041E5B
:1016800024D021250223435501680B68104A1A40D3
:10169000436880680343E06803432069034360694B
:1016A0000343A0690343E069034313430B60200035
:1016B000FFF7D0FF0023A362E36223636363A363A6
:1016C000012262551F32A354002070BD0120FCE7A7
:1016D0000FC0FFFF70B504002020205C012832D02D
:1016E0002020012525540130205C012804D020232E
:1016F0000022E254022070BD203001352554002024
:10170000A063256828680126B04328602000FFF701
:101710008BFFE36A002B0BD0226813680E210B436A
:1017200013602268136801210B4313600020E2E775
:10173000226813680A210B43136022681368063974
:101740008B431360EDE70220D5E770B5C36B1A68D1
:1017500004682568016C04238B401A4212D06B0781
:1017600010D523689B0603D4236804229343236087
:10177000C26B0423016C8B405360C36A002B00D002
:10178000984770BD02238B401A4218D0AB0716D57C
:1017900023689B0606D423680A22934323602123EF
:1017A000093AC254C26B0223016C8B405360202360
:1017B0000022C254836A002BE3D09847E1E7082354
:1017C0008B401A42DDD02B07DBD523680E229343D2
:1017D0002360C26B01231900046CA1405160836334
:1017E000212283541F330022C254036B002BC8D024
:1017F0009847C6E770B582B004000368DB072BD5B5
:10180000B34B5A680C231340042B1DD0B04B5A68BD
:101810000C231340082B0ED06368012B41D0002B02
:1018200056D1AB4B1A68AB490A401A601A68AA49EC
:101830000A401A603BE0A64B5B68C022520213408C
:10184000802252029342E7D1A14B1B689B0303D530
:101850006368002B00D139E223689B0778D59C4B45
:101860005B680C221A4262D0994B5A680C231340D1
:10187000082B53D0E368002B00D18BE0944A136807
:1018800001210B431360FFF71BF80500904B1B6809
:101890009B0776D4FFF714F8401B0228F6D90320E3
:1018A00017E28B4A116880235B020B431360636865
:1018B000002B25D0FFF704F80500854B1B689B0320
:1018C000CAD4FEF7FDFF401B6428F6D9032000E2CE
:1018D000052B09D07E4B1A687E490A401A601A68A7
:1018E0007D490A401A60E2E7794B19688022D202EA
:1018F0000A431A601968802252020A431A60D6E726
:10190000FEF7DEFF0500724B1B689B03A4D5FEF7B4
:10191000D7FF401B6428F6D90320DAE16C4B5B68E3
:10192000C02252021340802212029342A2D1684B7D
:101930001B689B0704D5E368012B01D00120C8E197
:1019400063490B68F82293432269D20013430B606A
:1019500023681B0744D5E369002B2ED05C4A536AE9
:1019600001210B435362FEF7ABFF0500584B5B6A46
:101970009B0735D4FEF7A4FF401B0228F6D90320AD
:10198000A7E153490B68F82293432269D20013431D
:101990000B60DDE74E4A136801218B431360FEF7AD
:1019A0008FFF05004A4B1B689B07D1D5FEF788FFC8
:1019B000401B0228F6D903208BE1454A536A0121D6
:1019C0008B435362FEF77CFF0500414B5B6A9B072C
:1019D00006D5FEF775FF401B0228F6D9032078E1F3
:1019E00023685B0700D47FE0394BDB69DB001DD443
:1019F000374AD169802040050143D161D369034052
:101A00000193019B0125354B1B68DB0510D5A368AD
:101A1000012B21D0002B36D12D4B1A6A01218A438C
:101A20001A621A6A03318A431A621AE00025EAE749
:101A30002A4A116880235B000B431360FEF740FFC6
:101A40000600264B1B68DB05E1D4FEF739FF801B3F
:101A50006428F6D903203CE11D4A136A01210B4397
:101A60001362A368002B24D0FEF72AFF0600184B50
:101A70001B6A9B0736D4FEF723FF801B184B984246
:101A8000F5D9032025E1052B09D0114B1A6A012154
:101A90008A431A621A6A03318A431A62E1E70C4BDD
:101AA0001A6A04210A431A621A6A03390A431A623B
:101AB000D7E7FEF705FF0600054B1B6A9B0711D50C
:101AC000FEF7FEFE801B064B9842F5D9032000E18D
:101AD00000100240FFFFFEFFFFFFFBFF0070004011
:101AE00088130000012D3AD02368DB0610D5636906
:101AF000012B3AD0053358D1784A536B04218B43DC
:101B00005363536BF4318B43A169C9000B43536397
:101B100023689B0600D482E0704B5A680C23134064
:101B20000C2B60D06D4B5A680C231340082B53D0FC
:101B3000236A002B60D0694A516B80235B020B4300
:101B40005363FEF7BDFE0500644B5B6BDB0366D49D
:101B5000FEF7B6FE401B0228F6D90320B9E05F4A23
:101B6000D3695F490B40D361BEE75C4B5A6B0421DC
:101B70000A435A635A6B03390A435A63FEF7A0FEBD
:101B80000500564B5B6B9B0706D4FEF799FE401B86
:101B90000228F6D903209CE050494B6BF82293436E
:101BA000A269D20013434B63B2E74C4B5A6B04213A
:101BB0000A435A635A6B03398A435A63FEF780FE1D
:101BC0000500464B5B6B9B07A2D5FEF779FE401BD9
:101BD0000228F6D903207CE0404B5B68C022520209
:101BE00013409342A4D13D4B5B6BDB0317D5236AB3
:101BF000012B14D001206CE0384A536B39490B405B
:101C00005363FEF75DFE0500344B5B6BDB0306D5CB
:101C1000FEF756FE401B0228F6D9032059E0636AFE
:101C2000002B55D02D4A51680C220A40082A52D068
:101C3000022B12D0294A13682B490B401360FEF780
:101C40003FFE0400254B1B689B013DD5FEF738FE87
:101C5000001B0228F6D903203BE0204A13682249E2
:101C60000B401360FEF72CFE05001C4B1B689B010C
:101C700006D5FEF725FE401B0228F6D9032028E0F2
:101C8000164BDA6A0F218A43216B0A43DA625A68DB
:101C900016490A40E16AA06A01430A435A6019687A
:101CA000802252040A431A60FEF70AFE04000B4B1E
:101CB0001B689B0106D4FEF703FE001B0228F6D921
:101CC000032006E0002004E0002002E0012000E004
:101CD000002002B070BD0120FBE7C04600100240AA
:101CE000FFFFFFEFFFFFFEFFFFFFFFFEFF7FC2FFD3
:101CF00030B589B004AA1F4B180032C832C2110097
:101D000002680A606A46103313CB13C21B68136063
:101D1000194B5A680C231340082B04D00C2B26D0E7
:101D2000164809B030BD910C0F23194004A8445C3B
:101D30001149C96A0B406946C95CC0235B021A405D
:101D400080235B029A4208D0C0235B029A4209D0EA
:101D50000A48FEF7D9F96043E3E70848FEF7D4F9EB
:101D60006043DEE70648FEF7CFF96043D9E7044851
:101D7000D7E7C046D81F00080010024000127A00C2
:101D8000006CDC0270B505000C00594B1A68012389
:101D900013408B420BD256490B68012293432343D5
:101DA0000B600B681A40A24201D0012070BD2B6865
:101DB0009B0706D54F4A5368F0218B43A9680B4314
:101DC00053602B68DB0763D56B68012B09D0022BAE
:101DD00028D0032B2CD0474A1268920705D4012043
:101DE000E4E7444A126892037FD542494A680320D7
:101DF000824313434B60FEF763FD06006B68012BC3
:101E00001CD0022B28D0032B34D03A4B5B680C2219
:101E10001A423DD0FEF754FD801B374B9842F4D94F
:101E20000320C3E7334A12689201DED40120BDE7E4
:101E3000304A526BD203D8D40120B7E72D4B5A68F1
:101E40000C231340042B23D0FEF73AFD801B2A4BB2
:101E50009842F3D90320A9E7264B5A680C23134074
:101E6000082B15D0FEF72CFD801B234B9842F3D98D
:101E700003209BE71F4B5A680C2313400C2B07D001
:101E8000FEF71EFD801B1C4B9842F3D903208DE703
:101E9000174B1A6801231340A3420BD914490B684E
:101EA0000122934323430B600B681A40A24201D0E6
:101EB00001207BE72B685B0706D50E4A53680F4964
:101EC0000B40E9680B435360FFF712FF094B5A6858
:101ED00012090F2313400A4AD35CD840094B1860FB
:101EE0000020FEF7C3FC002060E701205EE7C0464B
:101EF000002002400010024088130000FFF8FFFF9E
:101F00001420000800000020014B18687047C046EC
:101F1000000000200D4885460D480E490E4A00235A
:101F200002E0D458C4500433C4188C42F9D30B4A8D
:101F30000B4C002301E013600432A242FBD3FEF7F6
:101F4000CFFB00F011F8FEF7BDF9FEE700400020DE
:101F500000000020040000203C20000804000020B5
:101F600000090020FEE7000070B500260C4D0D4C66
:101F7000641BA410A64209D1002600F021F80A4DE6
:101F80000A4C641BA410A64205D170BDB300EB58E7
:101F900098470136EEE7B300EB5898470136F2E771
:101FA00034200008342000083420000838200008BD
:101FB00003001218934200D1704719700133F9E7FA
:101FC000F8B5C046F8BC08BC9E467047F8B5C04698
:081FD000F8BC08BC9E467047F6
:101FD80002030405060708090A0B0C0D0E0F101062
:101FE8000102030405060708090A0B0C0D0E0F1061
:101FF8007372632F6D63752E6300000063756265ED
:102008002F5372632F74696D2E6300000000000067
:1020180000000000010203040607080963756265F1
:0C2028002F5372632F6164632E6300006D
:04203400E9000008B7
:04203800C1000008DB
:04203C0000127A0014
:0400000508001F15BB
:00000001FF
